0105010570999991980010106004+69367+024433FM-12+028599999V0209991C00001220001CN0750001N9-01401-01601999999ADDAA199000091AY101999GF103991031001004501001061IA1319IA2999-01609KA1999N-01501MW1021REMSYN01126697 70065
0043010570999991980010112004+69367+024433FM-12+028599999V0209991C00001220001CN0750001N9-02701-03001999999ADDAY101999GF104991021001002501031061MW1021
0103010570999991980010118004+69367+024433FM-12+028599999V0209991C00001006001CN0750001N9-02301-02601999999ADDAA199000091AY121999GA1081+006009029GF108991081081004501999999KA1999M-01801MW1021REMSYN01170068 88220
0105010570999991980010206004+69367+024433FM-12+028599999V0201601N00151009001CN0750001N9-01301-01501999999ADDAA199000191AY171999GF108991081081004501999999IA1319IA2999-02509KA1999N-02601MW1021REMSYN01127596 79176
0087010570999991980010212004+69367+024433FM-12+028599999V0209991C00001220001CN0750001N9-01901-02201999999ADDAY121999GA1011+003009059GF101991011051004501001001MW1021WG199130699999REMSYN00581610
0081010570999991980010218004+69367+024433FM-12+028599999V0209991C00001220001CN0029001N9-01601-01801999999ADDAA199999929AY171999GF100991001001999999001001KA1999M-01601MW1491REMSYN00579766
0105010570999991980010306004+69367+024433FM-12+028599999V0209991C00001220001CN0750001N9-03401-03701999999ADDAA199000091AY101999GF102991021081004501001061IA1319IA2999-03309KA1999N-03501MW1021REMSYN01128396 70085
0073010570999991980010312004+69367+024433FM-12+028599999V0209991C00001220001CN0750001N9-03601-03901999999ADDAY101999GA1031+006009029GF103991031001004501001061MW1021REMSYN00583220
0073010570999991980010412004+69367+024433FM-12+028599999V0209991C00001220001CN0750001N9-02801-03101999999ADDAY101999GA1031+006009029GF103991031001004501001061MW1021REMSYN00583220
0081010570999991980010418004+69367+024433FM-12+028599999V0209991C00001220001CN0750001N9-03101-03401999999ADDAA199000091AY101999GF102991021081004501001061KA1999M-02001MW1021REMSYN00570070
0127010570999991980010506004+69367+024433FM-12+028599999V0209991C00001003001CN0750001N9-02201-02501999999ADDAA199000091AY121999GA1081+003009079GF108991081061002501999999IA1319IA2999-03909KA1999N-03801MW1021REMSYN01728996 70088 88710
0073010570999991980010512004+69367+024433FM-12+028599999V0209991C00001220001CN0750001N9-01401-01701999999ADDAY171999GA1041+006009029GF104991041001004501001061MW1021REMSYN00584220
0103010570999991980010518004+69367+024433FM-12+028599999V0201801N00211003001CN0750001N9-01201-01601999999ADDAA199000091AY121999GA1061+003009059GF106991061051002501001001KA1999M-01201MW1021REMSYN01170062 86610
0127010570999991980010606004+69367+024433FM-12+028599999V0201601N00211006001CN0750001N9-00901-01301999999ADDAA199000091AY131999GA1061+006009039GF106991061001004501001081IA1319IA2999-01509KA1999N-01401MW1021REMSYN01726596 70064 86320
0073010570999991980010612004+69367+024433FM-12+028599999V0201801N00261006001CN0750001N9-00801-01201999999ADDAY131999GA1061+006009039GF106991061001004501081999MW1361REMSYN00586320
0081010570999991980010618004+69367+024433FM-12+028599999V0209991C00001004201CN0750001N9-00701-01101999999ADDAA199000091AY121999GF108991081001004501021999KA1999M-00701MW1021REMSYN00570057
0127010570999991980010706004+69367+024433FM-12+028599999V0209991C00001006001CN0750001N9-00701-01001999999ADDAA199000191AY171999GA1061+006009039GF106991061001004501031001IA1319IA2999-01409KA1999N-00801MW1021REMSYN01726496 79158 86320
0043010570999991980010712004+69367+024433FM-12+028599999V0209991C00001030001CN0750001N9-02001-02301999999ADDAY101999GF105991031051002501041001MW1021
0103010570999991980010718004+69367+024433FM-12+028599999V0209991C00001220001CN0750001N9-02801-03001999999ADDAA199000091AY101999GA1041+006009039GF104991041001004501001001KA1999M-02801MW1021REMSYN01170078 84320
0149010570999991980010806004+69367+024433FM-12+028599999V0209991C00001006001CN0750001N9-00801-01101999999ADDAA199000091AY121999GA1031+003009059GA2051+006009039GF108991031051002501091001IA1319IA2999-02009KA1999N-02001MW1021REMSYN02327096 70070 83610 85320
0095010570999991980010812004+69367+024433FM-12+028599999V0209991C00001006001CN0750001N9-00901-01201999999ADDAY121999GA1031+003009059GA2051+006009029GF108991031051002501001061MW1021REMSYN01183610 85220
0103010570999991980010818004+69367+024433FM-12+028599999V0209991C00001220001CN0750001N9-01201-01401999999ADDAA199000091AY101999GA1031+006009039GF103991031001004501041001KA1999M-00801MW1021REMSYN01170058 83320
0163010570999991980010906004+69367+024433FM-12+028599999V0209991C00001006001CN0750001N9-01001-01301999999ADDAA199000091AY121999GA1031+003009059GA2051+006009049GF108991031051002501021001IA1319IA2999-01909KA1999N-01801MW1021WG199370999999REMSYN02326996 70068 83610 85420
0073010570999991980010912004+69367+024433FM-12+028599999V0209991C00001030001CN0750001N9-00901-01201999999ADDAY121999GA1011+003009059GF107991041051002501021001MW1021REMSYN00581610
0103010570999991980010918004+69367+024433FM-12+028599999V0209991C00001003001CN0750001N9-01101-01401999999ADDAA199000091AY121999GA1081+003009059GF108991081051002501001001KA1999M-01101MW1021REMSYN01170061 88610
0119010570999991980011006004+69367+024433FM-12+028599999V0209991C00001220001CN0750001N9-01501-01801999999ADDAA199000091AY101999GF104991041001004501001061IA1319IA2999-01909KA1999N-01801MW1021WG199370999999REMSYN01126996 70068
0095010570999991980011012004+69367+024433FM-12+028599999V0209991C00001006001CN0750001N9-01401-01701999999ADDAY101999GA1041+003009039GA2021+006009029GF106991041001002501031061MW1021REMSYN01184310 82220
0103010570999991980011018004+69367+024433FM-12+028599999V0209991C00001006001CN0750001N9-01701-02001999999ADDAA199000091AY121999GA1051+006009029GF105991051001004501001061KA1999M-01701MW1021REMSYN01170067 85220
0149010570999991980011106004+69367+024433FM-12+028599999V0209991C000019999999N0750001N9-01801-02101999999ADDAA199000091AY101999GA1021+003009029GA2031+006009019GF105991021001002501001091IA1319IA2999-01909KA1999N-01901MW1021REMSYN02326996 70069 82210 83120
0073010570999991980011112004+69367+024433FM-12+028599999V0209991C00001220001CN0750001N9-02201-02501999999ADDAY121999GA1041+006009039GF104991041001004501031001MW1021REMSYN00584320
0095010570999991980011118004+69367+024433FM-12+028599999V0209991C000019999999N0750001N9-01701-02001999999ADDAA199000091AY121999GF105991051001004501031001KA1999M-01701MW1021WG199370999999REMSYN00570067
0105010570999991980011206004+69367+024433FM-12+028599999V0209991C00001220001CN0000001N9-01801-02101999999ADDAA199000091AY141999GF100991001001999999001001IA1319IA2999-03609KA1999N-01801MW1491REMSYN01128696 70068
0073010570999991980011212004+69367+024433FM-12+028599999V0209991C00001003001CN0750001N9-01801-02101999999ADDAY141999GA1081+003009049GF108991081001002501021001MW1021REMSYN00588410
0125010570999991980011218004+69367+024433FM-12+028599999V0209991C00001030001CN0750001N9-01401-01701999999ADDAA199000091AY121999GA1031+003009059GA2021+006009049GF105991031051002501021999KA1999M-01401MW1021REMSYN01770064 83610 82420
0146010570999991980011306004+69367+024433FM-12+028599999V0200901N00151030001CN0039001N9-01401-01701999999ADDAA199000091AY141999GA1041+006009049GF108991041061002501021001IA1319IA2999-02009KA1999N-02501MW1481REMSYN01727096 70075 84420EQDQ01+000492PRSWM1
0073010570999991980011312004+69367+024433FM-12+028599999V0201401N00101003001CN0039001N9-00901-01101999999ADDAY171999GA1081+003009049GF108991081001002501021999MW1701REMSYN00588410
0103010570999991980011318004+69367+024433FM-12+028599999V0209991C00001003001CN0750001N9-00801-01001999999ADDAA199003091AY171999GA1081+003009049GF108991081001002501021001KA1999M-00801MW1021REMSYN01170358 88410
0127010570999991980011406004+69367+024433FM-12+028599999V0209991C00001003001CN0750001N9-00501-00601999999ADDAA199001091AY171999GA1081+003009049GF108991081001002501021999IA1319IA2999-01009KA1999N-01001MW1021REMSYN01726096 70160 88410
0087010570999991980011412004+69367+024433FM-12+028599999V0203601N00151003001CN0049001N9-00301-00601999999ADDAY171999GA1081+003009049GF108991081001002501021001MW1701WG199350099999REMSYN00588410
0103010570999991980011418004+69367+024433FM-12+028599999V0209991C00001003001CN0039001N9-00701-00801999999ADDAA199001091AY171999GA1081+003009049GF108991081001002501021001KA1999M-00701MW1701REMSYN01170157 88410
0127010570999991980011506004+69367+024433FM-12+028599999V0203401N00151003001CN0750001N9-01401-01801999999ADDAA199002091AY171999GA1081+003009049GF108991081001002501021001IA1319IA2999-01209KA1999N-01601MW1021REMSYN01726296 70266 88410
0073010570999991980011512004+69367+024433FM-12+028599999V0203601N00211220001CN0750001N9-01301-01801999999ADDAY171999GA1041+006009029GF104991041001004501001061MW1021REMSYN00584220
0081010570999991980011518004+69367+024433FM-12+028599999V0203601N001519999999N0750001N9-01501-01701999999ADDAA199999929AY121999GF105991051001004501001061KA1999M-01501MW1021REMSYN00579765
0127010570999991980011606004+69367+024433FM-12+028599999V0209991C00001220001CN0750001N9-02501-02801999999ADDAA199000091AY101999GA1021+006009029GF102991021001004501001061IA1319IA2999-02209KA1999N-02501MW1021REMSYN01727296 70075 82220
0073010570999991980011612004+69367+024433FM-12+028599999V0209991C00001006001CN0750001N9-02801-03101999999ADDAY121999GA1051+006009029GF105991051001004501001061MW1021REMSYN00585220
0122010570999991980011618004+69367+024433FM-12+028599999V0200401N00151003001CN0750001N9-01102-01501999999ADDAA199000091AY121999GA1081+003009059GF108991081051002501001001KA1999M-01101MW1021REMSYN01170061 88610EQDQ01+026223ATOT  
0127010570999991980011706004+69367+024433FM-12+028599999V0203201N00211003001CN0750001N9-00901-01301999999ADDAA199002091AY171999GA1081+003009049GF108991081001002501021001IA1319IA2999-01309KA1999N-01201MW1021REMSYN01726396 70262 88410
0095010570999991980011712004+69367+024433FM-12+028599999V0209991C000019999999N0750001N9-01201-01501999999ADDAY121999GA1031+003009039GA2021+006009029GF105991031001002501031061MW1021REMSYN01183310 82220
0103010570999991980011718004+69367+024433FM-12+028599999V0201801N00211220001CN0750001N9-00601-01201999999ADDAA199000091AY121999GA1041+006009029GF104991041001004501001061KA1999M-00601MW1021REMSYN01170056 84220
0105010570999991980011806004+69367+024433FM-12+028599999V0209991C00001220001CN0750001N9-00801-01201999999ADDAA199000191AY171999GF103991031051002501001001IA1319IA2999-01209KA1999N-01501MW1021REMSYN01126296 79165
0095010570999991980011812004+69367+024433FM-12+028599999V0209991C00001220001CN0750001N9-01001-01301999999ADDAY101999GA1021+003009039GA2011+006009029GF103991031001002501031061MW1021REMSYN01182310 81220
0109010570999991980011818004+69367+024433FM-12+028599999V0203601N002119999999N0750001N9-00401-00701999999ADDAA199000091AY131999GA1031+006009029GF106991031001002501041061KA1999M-00401MW1361REMSYN01770054 83310 83220
0105010570999991980011906004+69367+024433FM-12+028599999V0209991C00001220001CN0750001N9-01601-02001999999ADDAA199000091AY101999GF100991001001999999001001IA1319IA2999-01609KA1999N-01701MW1021REMSYN01126696 70067
0073010570999991980011912004+69367+024433FM-12+028599999V0209991C00001006001CN0750001N9-02201-02501999999ADDAY121999GA1061+006009029GF106991061001004501001061MW1021REMSYN00586220
0081010570999991980011918004+69367+024433FM-12+028599999V0209991C00001030001CN0750001N9-01901-02201999999ADDAA199000091AY121999GF108991041051002501031061KA1999M-01901MW1021REMSYN00570069
0127010570999991980012006004+69367+024433FM-12+028599999V0209991C00001003001CN0750001N9-00701-01001999999ADDAA199000091AY121999GA1081+003009049GF108991081001002501021001IA1319IA2999-01709KA1999N-02001MW1021REMSYN01726796 70070 88410
0043010570999991980012012004+69367+024433FM-12+028599999V0209991C00001002101CN0750001N9-01201-01401999999ADDAY141999GF108991081001002501021999MW1021
0105010570999991980012106004+69367+024433FM-12+028599999V0209991C00001220001CN0750001N9-01801-02101999999ADDAA199000091AY101999GF104991041001004501001061IA1319IA2999-02209KA1999N-02301MW1021REMSYN01127296 70073
0073010570999991980012112004+69367+024433FM-12+028599999V0209991C00001006001CN0750001N9-02001-02301999999ADDAY121999GA1081+006009029GF108991081001004501001061MW1021REMSYN00588220
0103010570999991980012118004+69367+024433FM-12+028599999V0209991C00001006001CN0750001N9-01901-02201999999ADDAA199000091AY121999GA1051+006009029GF105991051001004501001061KA1999M-01901MW1021REMSYN01170069 85220
0043010570999991980012212004+69367+024433FM-12+028599999V0201801N001519999999N0750001N9-01501-01801999999ADDAY121999GF108991081001004501001061MW1021
0099010570999991980012218004+69367+024433FM-12+028599999V0201401N00101075001CN0039001N9-01201+99999999999ADDAA199000291AY121999GF108991031091017501001071KA1999M-01201MW1701REMSYN02380320 65/// 79262 88410
0105010570999991980012306004+69367+024433FM-12+028599999V0200901N00211002101CN0039001N9-01001-01301999999ADDAA199000391AY171999GF108991081001002501021999IA1319IA2999-01309KA1999N-01301MW1701REMSYN01126396 79363
0073010570999991980012312004+69367+024433FM-12+028599999V0200901N00261003001CN0039001N9-01301-01601999999ADDAY171999GA1081+003009049GF108991081001002501021999MW1701REMSYN00588410
0105010570999991980012406004+69367+024433FM-12+028599999V0209991C00001220001CN0750001N9-03001-03301999999ADDAA199000091AY121999GF100991001001999999001001IA1319IA2999-03809KA1999N-04201MW1021REMSYN01128896 70092
0140010570999991980012412004+69367+024433FM-12+028599999V0209991C00001220001CN0750001N9-03801-04301999999ADDAA106000091AY121999GF100991001001999999001001IA1319IA2999-03809KA1999M+99999MW1021REMSYN01128896 70092EQDQ01  00003PRCP99Q02 -04202ATMX  
0081010570999991980012418004+69367+024433FM-12+028599999V0209991C00001220001CN0750001N9-04301-04401999999ADDAA199000091AY101999GF100991001001999999001001KA1999M-04301MW1021REMSYN00570093
0127010570999991980012506004+69367+024433FM-12+028599999V0209991C00001006001CN0750001N9-03901-04401999999ADDAA199000091AY101999GA1061+006009029GF106991061001004501001061IA1319IA2999-04409KA1999N-04401MW1021REMSYN01729496 70094 86220
0079010570999991980012512004+69367+024433FM-12+028599999V0209991C000019999999N0750001N9-02601-02901999999ADDAY121999GA1021+006009029GF105991021001002501031061MW1021REMSYN01182310 82220
0127010570999991980012606004+69367+024433FM-12+028599999V0209991C00001220001CN0750001N9-01501-01901999999ADDAA199999929AY171999GA1041+003009039GF104991041001002501031001IA1319IA2999-02309KA1999N-02201MW1021REMSYN01727396 79772 84310
0073010570999991980012612004+69367+024433FM-12+028599999V0209991C00001220001CN0750001N9-01701-02001999999ADDAY101999GA1031+006009029GF103991031001004501001061MW1021REMSYN00583220
0103010570999991980012618004+69367+024433FM-12+028599999V0209991C00001220001CN0750001N9-02101-02401999999ADDAA199000091AY121999GA1041+006009029GF104991041001004501001061KA1999M-02101MW1021REMSYN01170071 84220
0127010570999991980012706004+69367+024433FM-12+028599999V0200901N00211220001CN0750001N9-01701-02001999999ADDAA199000391AY171999GA1031+006009029GF103991031001004501001061IA1319IA2999-02609KA1999N-02401MW1021REMSYN01727696 79374 83220
0073010570999991980012712004+69367+024433FM-12+028599999V0203601N00151006001CN0049001N9-01601-02001999999ADDAY171999GA1081+006009049GF108991081001004501021001MW1701REMSYN00588420
0103010570999991980012718004+69367+024433FM-12+028599999V0202401N00211003001CN0750001N9-01301-01701999999ADDAA199000691AY171999GA1081+003009049GF108991081001002501021001KA1999M-00701MW1361REMSYN01179693 88410
0073010570999991980012812004+69367+024433FM-12+028599999V0209991C00001006001CN0750001N9-02201-02501999999ADDAY171999GA1051+006009009GF105991051001004501001031MW1021REMSYN00585020
0081010570999991980012818004+69367+024433FM-12+028599999V0209991C00001220001CN0750001N9-02901-03201999999ADDAA199001091AY101999GF100991001001999999001001KA1999M-02901MW1021REMSYN00570179
0127010570999991980012906004+69367+024433FM-12+028599999V0209991C00001006001CN0750001N9-01801-02101999999ADDAA199999929AY171999GA1051+006009009GF105991051001004501001021IA1319IA2999-02409KA1999N-02501MW1361REMSYN01727496 79775 85020
0073010570999991980012912004+69367+024433FM-12+028599999V0209991C00001006001CN0750001N9-01601-02001999999ADDAY121999GA1071+006009029GF107991071001004501001061MW1021REMSYN00587220
0122010570999991980012918004+69367+024433FM-12+028599999V0201401N00211220001CN0750001N9-03201-03501999999ADDAA199000091AY101999GA1041+006009029GF104991041001004501001061KA1999M+99999MW1021REMSYN01170083 84220EQDQ01 -03302ATMX  
0146010570999991980013006004+69367+024433FM-12+028599999V0209991C00001220001CN0750001N9-03401-03701999999ADDAA199000091AY101999GA1021+006009029GF102991001001999999001061IA1319IA2999-03509KA1999N-03601MW1021REMSYN01728596 70086 82220EQDQ01+000942SCOLCB
0043010570999991980013012004+69367+024433FM-12+028599999V0209991C000019999999N0750001N9-03901-04001999999ADDAY121999GF106991031001002501031061MW1021
0122010570999991980013018004+69367+024433FM-12+028599999V0201401N00151006001CN0750001N9-03501-03901999999ADDAA199999929AY171999GA1051+006009029GF105991051001004501001061KA1999M+99999MW1021REMSYN01179790 85220EQDQ01 -04002ATMX  
0127010570999991980013106004+69367+024433FM-12+028599999V0209991C00001003001CN0750001N9-01601-01901999999ADDAA199002091AY171999GA1081+003009049GF108991081001002501021001IA1319IA2999-03309KA1999N-03501MW1021REMSYN01728396 70285 88410
0043010570999991980013112004+69367+024433FM-12+028599999V0201401N001519999999N0750001N9-02301-02601999999ADDAY171999GF105991021001002501031061MW1021
0103010570999991980013118004+69367+024433FM-12+028599999V0200901N00101006001CN0750001N9-02601-02901999999ADDAA199000191AY131999GA1051+006009029GF105991051001004501001061KA1999M-02601MW1021REMSYN01179176 85220
0122010570999991980020118004+69367+024433FM-12+028599999V0200901N00151006001CN0750001N9-03001-03101999999ADDAA199000091AY121999GA1081+006009029GF108991081001004501001061KA1999M+99999MW1021REMSYN01170085 88220EQDQ01 -03502ATMX  
0105010570999991980020206004+69367+024433FM-12+028599999V0200901N00151220001CN0750001N9-03401-03701999999ADDAA199000191AY171999GF100991001001999999001001IA1319IA2999-03509KA1999N-03701MW1021REMSYN01128596 79187
0043010570999991980020212004+69367+024433FM-12+028599999V0200901N00211220001CN0750001N9-03901-04201999999ADDAY101999GF101991011001004501001031MW1021
0144010570999991980020218004+69367+024433FM-12+028599999V0200901N00151003001CN0750001N9-03301-03701999999ADDAA199000091AY121999GA1051+003009039GA2021+006009029GF107991051001002501031061KA1999M+99999MW1021REMSYN01770092 85310 82220EQDQ01 -04202ATMX  
0105010570999991980020306004+69367+024433FM-12+028599999V0209991C00001021001CN0750001N9-03401-03801999999ADDAA199000091AY121999GF108991051001022501031061IA1319IA2999-03609KA1999N-03801MW1021REMSYN01128696 70088
0092010570999991980020312004+69367+024433FM-12+028599999V0209991C000019999999N0750001N9-02901-03301999999ADDAY121999GA1031+006009009GF106991999041000251001061MW1021REMSYN00583020EQDQ01+000002SCOTLC
0103010570999991980020318004+69367+024433FM-12+028599999V0209991C00001220001CN0750001N9-03501-03901999999ADDAA199000391AY171999GA1031+006009029GF103991031001004501001061KA1999M-03501MW1021REMSYN01179385 83220
0043010570999991980020412004+69367+024433FM-12+028599999V0209991C00001220001CN0750001N9-03201-03601999999ADDAY101999GF100991001001999999001001MW1021
0081010570999991980020418004+69367+024433FM-12+028599999V0209991C00001220001CN0750001N9-03801-04001999999ADDAA199000091AY101999GF103991031001004501001061KA1999M-03801MW1021REMSYN00570088
0149010570999991980020506004+69367+024433FM-12+028599999V0209991C00001220001CN0750001N9-02801-03101999999ADDAA199000091AY101999GA1031+003009039GA2011+006009009GF104991031001002501031061IA1319IA2999-03609KA1999N-03901MW1021REMSYN02328696 70089 83310 81020
0043010570999991980020512004+69367+024433FM-12+028599999V0209991C00001220001CN0750001N9-02601-02901999999ADDAY101999GF102991021001004501031001MW1021
0109010570999991980020518004+69367+024433FM-12+028599999V0209991C00001220001CN0750001N9-03401-03801999999ADDAA199000291AY171999GA1021+006009029GF104991021001002501031061KA1999M-03401MW1021REMSYN01779284 82310 82220
0105010570999991980020606004+69367+024433FM-12+028599999V0209991C00001030001CN0750001N9-02101-02401999999ADDAA199000091AY121999GF105991021051002501031001IA1319IA2999-03009KA1999N-03501MW1021REMSYN01128096 70085
0073010570999991980020612004+69367+024433FM-12+028599999V0209991C00001220001CN0750001N9-02501-02801999999ADDAY101999GA1021+003009039GF102991021001002501031001MW1021REMSYN00582310
0081010570999991980020618004+69367+024433FM-12+028599999V0209991C00001220001CN0750001N9-03201-03501999999ADDAA199000091AY101999GF100991001001999999001001KA1999M-02501MW1021REMSYN00570075
0127010570999991980020706004+69367+024433FM-12+028599999V0200901N00151220001CN0750001N9-03401-03801999999ADDAA199000091AY101999GA1011+006009029GF101991011001004501001061IA1319IA2999-03409KA1999N-03501MW1021REMSYN01728496 70085 81220
0073010570999991980020712004+69367+024433FM-12+028599999V0200901N00101220001CN0750001N9-02801-03101999999ADDAY121999GA1041+006009009GF104991041001004501001021MW1021REMSYN00584020
0081010570999991980020718004+69367+024433FM-12+028599999V0200901N00101030001CN0750001N9-02901-03301999999ADDAA199000091AY121999GF106991031051002501031001KA1999M-02801MW1021REMSYN00570078
0127010570999991980020806004+69367+024433FM-12+028599999V0200901N00151220001CN0750001N9-03101-03401999999ADDAA199000091AY121999GA1041+006009029GF104991041001004501001061IA1319IA2999-03409KA1999N-03101MW1021REMSYN01728496 70081 84220
0079010570999991980020812004+69367+024433FM-12+028599999V0200901N002119999999N0750001N9-03201-03601999999ADDAY121999GA1031+006009029GF106991031001002501031061MW1021REMSYN01183310 83220
0125010570999991980020818004+69367+024433FM-12+028599999V0200901N00151006001CN0750001N9-03201-03801999999ADDAA199000091AY121999GA1031+003009039GA2041+006009029GF107991031001002501031061KA1999M-03101MW1021REMSYN01770081 83310 84220
0105010570999991980020906004+69367+024433FM-12+028599999V0201601N00151220001CN0750001N9-03501-03901999999ADDAA199000091AY121999GF100991001001999999001001IA1009IA2999-03609KA1999N-03701MW1021REMSYN01128606 70087
0073010570999991980020912004+69367+024433FM-12+028599999V0201401N00151220001CN0750001N9-03201-03601999999ADDAY101999GA1011+006009029GF101991011001004501001061MW1021REMSYN00581220
0081010570999991980020918004+69367+024433FM-12+028599999V0201401N00211220001CN0750001N9-03601-03901999999ADDAA199000091AY101999GF100991001001999999001001KA1999M-03001MW1021REMSYN00570080
0127010570999991980021006004+69367+024433FM-12+028599999V0201401N00151006001CN0750001N9-03801-04101999999ADDAA199000091AY101999GA1061+006009029GF106991061001004501001061IA1319IA2999-03709KA1999N-03801MW1021REMSYN01728796 70088 86220
0073010570999991980021012004+69367+024433FM-12+028599999V0201401N00151220001CN0750001N9-02002-02302999999ADDAY121999GA1031+006009029GF103991031001004501001061MW1021REMSYN00583220
0103010570999991980021018004+69367+024433FM-12+028599999V0201401N00151220001CN0750001N9-02101-02401999999ADDAA199000091AY101999GA1021+006009029GF102991021001004501001051KA1999M-02101MW1021REMSYN01170071 82220
0133010570999991980021106004+69367+024433FM-12+028599999V0203601N001519999999N0750001N9-02101-02401999999ADDAA199000091AY121999GA1031+006009029GF106991031001002501031061IA1319IA2999-02809KA1999N-02601MW1021REMSYN02327896 70076 83310 83220
0043010570999991980021112004+69367+024433FM-12+028599999V0203601N001519999999N0750001N9-02101-02401999999ADDAY121999GF106991031001002501031091MW1021
0103010570999991980021118004+69367+024433FM-12+028599999V0209991C00001003001CN0750001N9-01601-02001999999ADDAA199000091AY121999GA1081+003009049GF108991081001002501021001KA1999M-01601MW1021REMSYN01170066 88410
0105010570999991980021206004+69367+024433FM-12+028599999V0209991C00001002101CN0750001N9-01401-01701999999ADDAA199000191AY171999GF108991081001002501021999IA1319IA2999-01909KA1999N-01901MW1021REMSYN01126996 79169
0079010570999991980021212004+69367+024433FM-12+028599999V0200901N00151030001CN0750001N9-01301-01701999999ADDAY121999GA1031+006009039GF106991031051002501031001MW1021REMSYN01183610 83320
0103010570999991980021218004+69367+024433FM-12+028599999V0209991C00001003001CN0750001N9-01401-01701999999ADDAA199000091AY121999GA1081+003009059GF108991081051002501001001KA1999M-01301MW1021REMSYN01170063 88610
0133010570999991980021306004+69367+024433FM-12+028599999V0209991C00001220001CN0750001N9-02601-02901999999ADDAA199000091AY101999GA1031+006009029GF106991031051002501001061IA1319IA2999-02609KA1999N-02901MW1021REMSYN02327696 70079 83610 83220
0114010570999991980021312004+69367+024433FM-12+028599999V0209991C00001006001CN0750001N9-01001-01401999999ADDAY121999GA1031+003009039GA2081+006009029GF199999031001002501031061MW1021REMSYN01183310 88220EQDQ01+000052SCOTCV
0081010570999991980021318004+69367+024433FM-12+028599999V0209991C00001220001CN0750001N9-01101-01601999999ADDAA199000091AY101999GF104991041001004501001081KA1999M-01001MW1021REMSYN00570060
0127010570999991980021406004+69367+024433FM-12+028599999V0209991C00001006001CN0750001N9-02401-02701999999ADDAA199000091AY121999GA1071+006009029GF107991071001002501001061IA1319IA2999-02509KA1999N-02401MW1021REMSYN01727596 70074 87220
0073010570999991980021412004+69367+024433FM-12+028599999V0201401N00151001501CN0300001N9-01701-02101999999ADDAY121999GA1081+001509079GF108991081061001501001001MW1901REMSYN00588705
0103010570999991980021418004+69367+024433FM-12+028599999V0201801N00211220001CN0750001N9-01801-02201999999ADDAA199999929AY171999GA1041+006009029GF104991041001002501001061KA1999M-01701MW1021REMSYN01179767 84220
0133010570999991980021506004+69367+024433FM-12+028599999V0209991C00001220001CN0750001N9-02601-02901999999ADDAA199000091AY101999GA1011+006009039GF102991011061001501031001IA1319IA2999-02709KA1999N-02801MW1021REMSYN02327796 70078 81705 81320
0073010570999991980021512004+69367+024433FM-12+028599999V0209991C00001220001CN0750001N9-02301-02601999999ADDAY101999GA1031+006009029GF103991031001004501001061MW1021REMSYN00583220
0109010570999991980021518004+69367+024433FM-12+028599999V0201401N00211003001CN0750001N9-02501-02801999999ADDAA199000091AY141999GA1081+003009079GF108991081061002501001001KA1999M-02301MW1021REMSYN01770073 88710 88710
0124010570999991980021606004+69367+024433FM-12+028599999V0201401N00151002101CN0039001N9-01701-02001999999ADDAA199999999AY121999GF108991081001002501021999IA1319IA2999-02409KA1999N-02201MW1701REMSYN01127496 70072EQDQ01  00002PRCP99
0079010570999991980021612004+69367+024433FM-12+028599999V0201401N00671030001CN0750001N9-01001-01701999999ADDAY171999GA1031+006009039GF106991031051002501031001MW1021REMSYN01183610 83320
0081010570999991980021618004+69367+024433FM-12+028599999V0209991C00001220001CN0750001N9-01301-01601999999ADDAA199999929AY101999GF100991001001999999001001KA1999M-01001MW1021REMSYN00579760
0127010570999991980021706004+69367+024433FM-12+028599999V0201801N00151003001CN0750001N9-00901-01301999999ADDAA199000191AY171999GA1061+003009059GF106991061051002501001001IA1009IA2999-01909KA1999N-00901MW1021REMSYN01726906 79159 86610
0073010570999991980021712004+69367+024433FM-12+028599999V0209991C00001006001CN0750001N9-01401-01801999999ADDAY101999GA1051+006009029GF105991051001004501001061MW1021REMSYN00585220
0081010570999991980021718004+69367+024433FM-12+028599999V0201801N00211002101CN0750001N9-00901-01301999999ADDAA199000091AY121999GF108991081051002501999999KA1999M-00901MW1021REMSYN00570059
0127010570999991980021806004+69367+024433FM-12+028599999V0209991C00001003001CN0750001N9-00801-01201999999ADDAA199000091AY121999GA1081+003009049GF108991081001002501021001IA1319IA2999-01209KA1999N-01101MW1021REMSYN01726296 70061 88410
0043010570999991980021812004+69367+024433FM-12+028599999V0209991C00001002101CN0750001N9-00301-00701999999ADDAY121999GF107991071001002501021001MW1021
0103010570999991980021818004+69367+024433FM-12+028599999V0209991C00001000151CN0750001N9-00201-00601999999ADDAA199000091AY121999GA1081+000159049GF108991081001002501021001KA1999M+00001MW1021REMSYN01170000 88400
0127010570999991980021906004+69367+024433FM-12+028599999V0201801N00261003001CN0750001N9+00201-00301999999ADDAA199000091AY121999GA1081+003009049GF108991081001002501021001IA1319IA2999-00409KA1999N-00201MW1021REMSYN01725496 70052 88410
0073010570999991980021912004+69367+024433FM-12+028599999V0201801N00211220001CN0750001N9+00101-00401999999ADDAY101999GA1041+003009039GF104991041001002501031001MW1021REMSYN00584310
0103010570999991980021918004+69367+024433FM-12+028599999V0201801N00151030001CN0750001N9-00201-00501999999ADDAA199000091AY121999GA1021+003009059GF106991021051002501031001KA1999M-00201MW1021REMSYN01170052 82610
0126010570999991980022006004+69367+024433FM-12+028599999V0201801N00461005401CN0400001N9+00501-00801999999ADDAA199000091AJ100439199999999AY121999GA1081+005409079GF108991081071004501999999KA1999N+00301MW1021REMSYN01770003 88718 99643
0079010570999991980022012004+69367+024433FM-12+028599999V0201801N001519999999N0750001N9+00301-00201999999ADDAY101999GA1031+006009029GF106991031001002501031061MW1021REMSYN01183310 83220
0125010570999991980022018004+69367+024433FM-12+028599999V0201801N001519999999N0750001N9+00101-00401999999ADDAA199000091AY121999GA1031+003009039GA2021+006009009GF105991031001002501031021KA1999M+00101MW1021REMSYN01770001 83310 82020
0105010570999991980022106004+69367+024433FM-12+028599999V0209991C00001220001CN0750001N9-01201-01301999999ADDAA199000091AY101999GF103991031001004501001061IA1319IA2999-01409KA1999N-01301MW1021REMSYN01126496 70063
0073010570999991980022112004+69367+024433FM-12+028599999V0209991C00001220001CN0750001N9-01001-01301999999ADDAY101999GA1031+006009029GF103991031001004501001061MW1021REMSYN00583220
0081010570999991980022118004+69367+024433FM-12+028599999V0209991C00001220001CN0750001N9-02001-02101999999ADDAA199000091AY101999GF100991001001999999001001KA1999M-01001MW1021REMSYN00570060
0149010570999991980022206004+69367+024433FM-12+028599999V0200401N001519999999N0750001N9-02301-02601999999ADDAA199000091AY121999GA1031+003009039GA2021+006009029GF105991031001002501041081IA1319IA2999-02509KA1999N-02601MW1021REMSYN02327596 70076 83310 82220
0079010570999991980022212004+69367+024433FM-12+028599999V0200401N001519999999N0750001N9-01401-01701999999ADDAY121999GA1031+006009029GF106991031001002501041061MW1021REMSYN01183310 83220
0081010570999991980022218004+69367+024433FM-12+028599999V0200401N00101002101CN0750001N9-01101-01601999999ADDAA199000091AY121999GF108991081001002501021001KA1999M-01101MW1021REMSYN00570061
0127010570999991980022306004+69367+024433FM-12+028599999V0201801N00151003001CN0750001N9-00801-01401999999ADDAA199000091AY121999GA1081+003009049GF108991081001002501021001IA1319IA2999-01509KA1999N-02601MW1021REMSYN01726596 70076 88410
0079010570999991980022312004+69367+024433FM-12+028599999V0209991C00001220001CN0750001N9-00301-00801999999ADDAY101999GA1011+006009029GF102991011001002501041061MW1021REMSYN01181310 81220
0149010570999991980022406004+69367+024433FM-12+028599999V0209991C00001006001CN0750001N9-00201-00701999999ADDAA199000091AY121999GA1031+003009039GA2041+006009029GF107991031001002501041061IA1319IA2999-00609KA1999N-00301MW1021REMSYN02325696 70053 83310 84220
0073010570999991980022412004+69367+024433FM-12+028599999V0209991C000019999999N0750001N9-00201-00301999999ADDAY121999GA1031+003009039GF107991031001002501041061MW1021REMSYN00583310
0122010570999991980022418004+69367+024433FM-12+028599999V0209991C00001003001CN0750001N9+00201-00301999999ADDAA199000091AY121999GA1081+003009059GF108991081051002501001001KA1999M+99999MW1021REMSYN01170000 88610EQDQ01 +00002ATMX  
0127010570999991980022506004+69367+024433FM-12+028599999V0209991C00001220001CN0750001N9-00501-01001999999ADDAA199000091AY101999GA1011+006009029GF101991011001004501001081IA1319IA2999-00909KA1999N-00701MW1021REMSYN01725996 70057 81220
0092010570999991980022512004+69367+024433FM-12+028599999V0201801N002119999999N0750001N9+00001-01101999999ADDAY101999GA1021+006009039GF107991999001004501031001MW1021REMSYN00582320EQDQ01+000022SCOTLC
0081010570999991980022518004+69367+024433FM-12+028599999V0209991C00001002101CN0750001N9-00301-01101999999ADDAA199000091AY121999GF107991051051002501031001KA1999M+00001MW1021REMSYN00570000
0149010570999991980022606004+69367+024433FM-12+028599999V0202001N00211030001CN0750001N9-00201-00601999999ADDAA199000091AY121999GA1031+003009089GA2021+006009039GF105991031021002501031001IA1319IA2999-01209KA1999N-01001MW1021REMSYN02326296 70060 83810 82320
0073010570999991980022612004+69367+024433FM-12+028599999V0201801N00311220001CN0750001N9-00101-00601999999ADDAY121999GA1041+006009039GF104991041001004501031001MW1021REMSYN00584320
0081010570999991980022618004+69367+024433FM-12+028599999V0201401N002619999999N0750001N9-00301-00701999999ADDAA199000091AY121999GF106991051001002501031081KA1999M+00001MW1021REMSYN00570000
0144010570999991980022706004+69367+024433FM-12+028599999V0201401N00261003001CN0300001N9-00301-00701999999ADDAA199000091AY121999GA1051+003009039GA2011+006009029GF106991051001002501031081KA1999N+99999MW1021REMSYN01770000 85310 81220EQDQ01 +00002ATMN  
0043010570999991980022712004+69367+024433FM-12+028599999V0202701N00311002101CN0750001N9-00301-00501999999ADDAY171999GF105991051031002501001001MW1021
0103010570999991980022718004+69367+024433FM-12+028599999V0202701N00311220001CN0750001N9-00801-01201999999ADDAA199000091AY101999GA1031+003009089GF103991031021004501001001KA1999M-00501MW1021REMSYN01170055 83810
0127010570999991980022806004+69367+024433FM-12+028599999V0202001N00261003001CN0750001N9-00201-00401999999ADDAA199000891AY171999GA1071+003009089GF107991071081002501001001IA1319IA2999-01109KA1999N-00401MW1021REMSYN01726196 79854 87810
0043010570999991980022812004+69367+024433FM-12+028599999V0202201N00311002101CN0750001N9+00001-00501999999ADDAY181999GF108991081001002501021001MW1021
0139010570999991980022818004+69367+024433FM-12+028599999V0209991C00001030001CN0750001N9+00101-00101999999ADDAA199999929AY121999GA1011+003009099GA2031+006009039GF106991031091002501031001KA1999M+00101MW1021WG199010799999REMSYN01779701 81910 83320
0105010570999991980022906004+69367+024433FM-12+028599999V0202701N00211002101CN0750001N9-00401-00601999999ADDAA199001091AY171999GF108991081001002501021999IA1319IA2999-00509KA1999N-00501MW1021REMSYN01125596 70155
0057010570999991980022912004+69367+024433FM-12+028599999V0209991C00001030001CN0750001N9-00501-01101999999ADDAY121999GF106991041051002501031001MW1021WG199990299999
0125010570999991980022918004+69367+024433FM-12+028599999V0209991C00001030001CN0750001N9-01401-01801999999ADDAA199000091AY101999GA1031+003009059GA2021+006009039GF105991031051002501031001KA1999M+00001MW1021REMSYN01770000 83610 82320
0141010570999991980030106004+69367+024433FM-12+028599999V0209991C00001006001CN0750001N9-02401-02701999999ADDAA199000091AY121999GA1061+006009029GF106991061001004501001081IA1319IA2999-02309KA1999N-02501MW1021WG199350299999REMSYN01727396 70075 86220
0073010570999991980030112004+69367+024433FM-12+028599999V0209991C00001006001CN0750001N9-01701-02101999999ADDAY101999GA1051+006009009GF105991051001004501001061MW1021REMSYN00585020
0105010570999991980030206004+69367+024433FM-12+028599999V0209991C000019999999N0750001N9-02001-02301999999ADDAA199000091AY121999GF108991031001002501041061IA1319IA2999-03009KA1999N-03001MW1021REMSYN01128096 70080
0057010570999991980030212004+69367+024433FM-12+028599999V0209991C000019999999N0750001N9-01301-01701999999ADDAY101999GF105991031001002501031061MW1021WG199370999999
0103010570999991980030218004+69367+024433FM-12+028599999V0209991C00001220001CN0750001N9-02201-02501999999ADDAA199000091AY101999GA1041+006009009GF104991041001004501001051KA1999M-02201MW1021REMSYN01170072 84020
0146010570999991980030306004+69367+024433FM-12+028599999V0209991C00001003001CN0039001N9-02301-02601999999ADDAA199000091AY141999GA1081+003009079GF108991081061002501999999IA1319IA2999-02609KA1999N-02501MW1481REMSYN01727696 70075 88710EQDQ01+000492PRSWM1
0073010570999991980030312004+69367+024433FM-12+028599999V0209991C00001220001CN0750001N9-01201-01301999999ADDAY101999GA1031+006009009GF103991031001004501001061MW1021REMSYN00583020
0103010570999991980030318004+69367+024433FM-12+028599999V0209991C00001220001CN0750001N9-02401-02701999999ADDAA199000091AY101999GA1021+006009009GF102991021001004501001061KA1999M-02001MW1021REMSYN01170070 82020
0043010570999991980030412004+69367+024433FM-12+028599999V0209991C00001220001CN0750001N9-02201-02501999999ADDAY101999GF100991001001999999001001MW1021
0081010570999991980030418004+69367+024433FM-12+028599999V0209991C00001220001CN0750001N9-03201-03501999999ADDAA199000091AY101999GF101991011001004501001011KA1999M-03101MW1021REMSYN00570081
0146010570999991980030506004+69367+024433FM-12+028599999V0209991C00001003001CN0029001N9-03401-03701999999ADDAA199000091AY141999GA1081+003009079GF108991081061002501001001IA1319IA2999-03609KA1999N-03701MW1481REMSYN01728696 70087 88710EQDQ01+000492PRSWM1
0073010570999991980030512004+69367+024433FM-12+028599999V0209991C00001220001CN0750001N9-02701-03001999999ADDAY101999GA1031+006009029GF103991031001004501001081MW1021REMSYN00583220
0103010570999991980030518004+69367+024433FM-12+028599999V0209991C00001006001CN0750001N9-03301-03601999999ADDAA199000091AY121999GA1051+006009009GF105991051001004501001061KA1999M-02201MW1021REMSYN01170072 85020
0121010570999991980030606004+69367+024433FM-12+028599999V0200901N00211003001CN0029001N9-02501-02801999999ADDAA199000891AY171999GA1081+003009049GF108991081001002501021001IA1319IA2999-03309KA1999N-03401REMSYN01728396 79884 88410
0095010570999991980030612004+69367+024433FM-12+028599999V0202201N00151006001CN0750001N9-01001-01401999999ADDAY171999GA1031+003009059GA2051+006009039GF108991031051002501031001MW1021REMSYN01183610 85320
0103010570999991980030618004+69367+024433FM-12+028599999V0202201N00211003001CN0750001N9-00901-01301999999ADDAA199999929AY121999GA1081+003009049GF108991081001002501021999KA1999M-00401MW1021REMSYN01179754 88410
0127010570999991980030706004+69367+024433FM-12+028599999V0201801N00151003001CN0750001N9-00201-00601999999ADDAA199000091AY131999GA1081+003009049GF108991081001002501021001IA1319IA2999-01009KA1999N-00901MW1021REMSYN01726096 70059 88410
0043010570999991980030712004+69367+024433FM-12+028599999V0202001N00211002101CN0750001N9-00401-00501999999ADDAY101999GF106991061051002501001001MW1021
0144010570999991980030718004+69367+024433FM-12+028599999V0209991C000019999999N0750001N9-00801-01101999999ADDAA199000091AY101999GA1021+003009039GA2031+006009009GF105991021001002501031021KA1999M+99999MW1021REMSYN01770059 82310 83020EQDQ01 -00902ATMX  
0146010570999991980030806004+69367+024433FM-12+028599999V0201401N00211003001CN0029001N9-00401-00601999999ADDAA199000091AY141999GA1081+003009079GF108991081061002501001001IA1319IA2999-01209KA1999N-01101MW1441REMSYN01726296 70061 88710EQDQ01+000452PRSWM1
0125010570999991980030818004+69367+024433FM-12+028599999V0201401N00211006001CN0750001N9-00601-01101999999ADDAA199000091AY121999GA1031+003009059GA2051+006009009GF108991031051002501031031KA1999M+00001MW1021REMSYN01770050 83610 85020
0105010570999991980030906004+69367+024433FM-12+028599999V0201401N00261002101CN0750001N9-00501-01001999999ADDAA199000091AY121999GF108991081061002501999999IA1319IA2999-00809KA1999N-00701MW1021REMSYN01125896 70057
0073010570999991980030912004+69367+024433FM-12+028599999V0201801N00311220001CN0750001N9-00301-00801999999ADDAY101999GA1031+003009009GF103991031001002501001031MW1021REMSYN00583010
0103010570999991980030918004+69367+024433FM-12+028599999V0201801N00361003001CN0750001N9-00601-01101999999ADDAA199000091AY101999GA1081+003009049GF108991081001002501021001KA1999M-00501MW1021REMSYN01170055 88410
0149010570999991980031006004+69367+024433FM-12+028599999V0209991C000019999999N0750001N9-01201-01601999999ADDAA199000091AY121999GA1031+009009039GA2021+006009009GF105991031001002501031021IA1319IA2999-01409KA1999N-01301MW1021REMSYN02326496 70063 83330 82020
0073010570999991980031012004+69367+024433FM-12+028599999V0201801N00211003001CN0750001N9-00801-01301999999ADDAY101999GA1051+003009009GF105991051001002501001021MW1021REMSYN00585010
0103010570999991980031018004+69367+024433FM-12+028599999V0201801N00151003001CN0750001N9-01001-01401999999ADDAA199000091AY121999GA1061+003009039GF108991041051002501031999KA1999M-00701MW1021REMSYN01170057 86310
0127010570999991980031106004+69367+024433FM-12+028599999V0209991C00001006001CN0750001N9-01501-01801999999ADDAA199000091AY121999GA1061+006009029GF106991061001004501001081IA1319IA2999-01809KA1999N-01901MW1021REMSYN01726896 70069 86220
0073010570999991980031112004+69367+024433FM-12+028599999V0209991C00001006001CN0750001N9-00901-01301999999ADDAY141999GA1081+006009029GF108991081001004501001081MW1021REMSYN00588220
0103010570999991980031118004+69367+024433FM-12+028599999V0201801N00151003001CN0750001N9-00901-01301999999ADDAA199000091AY121999GA1081+003009049GF108991081001002501021001KA1999M-00901MW1021REMSYN01170059 88410
0127010570999991980031206004+69367+024433FM-12+028599999V0201401N00261003001CN0039001N9-00901-01301999999ADDAA199000091AY141999GA1081+003009079GF108991081061002501001001IA1319IA2999-01409KA1999N-01101MW1101REMSYN01726496 70061 88710
0073010570999991980031212004+69367+024433FM-12+028599999V0201401N00311220001CN0049001N9-00901-01401999999ADDAY141999GA1041+003009079GF104991041061002501001001MW1101REMSYN00584710
0103010570999991980031218004+69367+024433FM-12+028599999V0201401N00311003001CN0750001N9-00801-01301999999ADDAA199000091AY121999GA1081+003009049GF108991081001002501021001KA1999M-00801MW1021REMSYN01170058 88410
0146010570999991980031306004+69367+024433FM-12+028599999V0201601N00311003001CN0049001N9-00701-01101999999ADDAA199999999AY141999GA1081+003009079GF108991081061002501001001IA1319IA2999-01009KA1999N-00901MW1201REMSYN01726096 70059 88710EQDQ01  00002PRCP99
0043010570999991980031312004+69367+024433FM-12+028599999V0201601N00311002101CN0049001N9-00401-00901999999ADDAY121999GF106991061031002501001001MW1101
0103010570999991980031318004+69367+024433FM-12+028599999V0201801N00311002101CN0750001N9-00301-00601999999ADDAA199000091AY121999GA1031+003009039GF108991081031002501001001KA1999M-00301MW1021REMSYN01170053 83310
0127010570999991980031406004+69367+024433FM-12+028599999V0209991C00001003001CN0029001N9-00501-00701999999ADDAA199000091AY141999GA1081+003009079GF108991081061002501001001IA1319IA2999-00509KA1999N-00501MW1101REMSYN01725596 70055 88710
0103010570999991980031418004+69367+024433FM-12+028599999V0209991C00001003001CN0750001N9-00901-01301999999ADDAA199000091AY121999GA1081+003009059GF108991081051002501001001KA1999M-00301MW1021REMSYN01170053 88610
0103010570999991980031518004+69367+024433FM-12+028599999V0209991C00001003001CN0750001N9-00201-00401999999ADDAA199000091AY121999GA1051+003009039GF108991081051002501001001KA1999M+00201MW1021REMSYN01170002 85310
0105010570999991980031603004+69367+024433FM-12+028599999V0209991C00001002101CN0750001N9-00401-00501999999ADDAA199000091AY121999GF108991081001002501021999IA1319IA2999-00709KA1999N-00701MW1021REMSYN01125796 70057
0105010570999991980031606004+69367+024433FM-12+028599999V0209991C00001002101CN0750001N9-00401-00501999999ADDAA199000091AY121999GF108991081001002501021999IA1319IA2999-00709KA1999N-00701MW1021REMSYN01125796 70057
0117010570999991980031618004+69367+024433FM-12+028599999V0201701N00261003001CN0750001N9-00601-01001999999ADDAA199000091AY121999GA1081+003009049GF108991081001002501021001KA1999M+00001MW1021WG199130299999REMSYN01170000 88410
0127010570999991980031706004+69367+024433FM-12+028599999V0209991C00001003001CN0039001N9-01301-01501999999ADDAA199000091AY141999GA1081+003009079GF108991081061002501001001IA1319IA2999-01409KA1999N-01401MW1101REMSYN01726496 70064 88710
0073010570999991980031712004+69367+024433FM-12+028599999V0209991C00001220001CN0750001N9-00701-01201999999ADDAY121999GA1021+006009029GF102991021001004501001021MW1021REMSYN00582220
0081010570999991980031718004+69367+024433FM-12+028599999V0209991C00001220001CN0750001N9-01601-01901999999ADDAA199000091AY101999GF103991031001004501001071KA1999M-00501MW1021REMSYN00570055
0127010570999991980031806004+69367+024433FM-12+028599999V0209991C00001220001CN0750001N9-02501-02801999999ADDAA199000091AY141999GA1021+006009029GF102991021001004501001071IA1319IA2999-02509KA1999N-02701MW1021REMSYN01727596 70077 82220
0043010570999991980031812004+69367+024433FM-12+028599999V0209991C00001220001CN0750001N9-01001-01501999999ADDAY101999GF100991001001999999001001MW1021
0103010570999991980031818004+69367+024433FM-12+028599999V0209991C00001220001CN0750001N9-01901-02201999999ADDAA199000091AY101999GA1031+006009039GF103991031001004501081001KA1999M-01001MW1021REMSYN01170060 83320
0105010570999991980031906004+69367+024433FM-12+028599999V0209991C00001220001CN0750001N9-02401-02701999999ADDAA199999929AY181999GF103991031001004501001011IA1319IA2999-02309KA1999N-02501MW1021REMSYN01127396 79775
0073010570999991980031912004+69367+024433FM-12+028599999V0209991C00001006001CN0750001N9-00702-01201999999ADDAY101999GA1051+006009029GF105991051001004501001071MW1021REMSYN00585220
0103010570999991980031918004+69367+024433FM-12+028599999V0209991C00001006001CN0750001N9-01501-01901999999ADDAA199000091AY121999GA1061+006009029GF106991061001004501001071KA1999M-00701MW1021REMSYN01170057 86220
0133010570999991980032006004+69367+024433FM-12+028599999V0209991C000019999999N0750001N9-01501-01901999999ADDAA199000091AY121999GA1031+006009029GF106991031001002501031081IA1319IA2999-01809KA1999N-01701MW1021REMSYN02326896 70067 83310 83220
0103010570999991980032018004+69367+024433FM-12+028599999V0209991C00001220001CN0750001N9-01401-01901999999ADDAA199000091AY101999GA1031+006009009GF103991031001004501001011KA1999M-01201MW1021REMSYN01170062 83020
0149010570999991980032106004+69367+024433FM-12+028599999V0209991C00001006001CN0750001N9-01301-01701999999ADDAA199000091AY121999GA1031+003009089GA2041+006009009GF107991031011002501001021IA1009IA2999-01709KA1999N-01601MW1021REMSYN02326706 70066 83810 84020
0144010570999991980032118004+69367+024433FM-12+028599999V0209991C00001220001CN0750001N9-01801-02201999999ADDAA199000091AY101999GA1031+009909039GA2021+006009009GF199999021001004501001011KA1999M-01001MW1021REMSYN01783333 70060 82020EQDQ01+000022SCOTCV
0149010570999991980032206004+69367+024433FM-12+028599999V0209991C000019999999N0049001N9-02301-02601999999ADDAA199000091AY141999GA1031+003009039GA2021+006009029GF105991031001002501031081IA1319IA2999-02409KA1999N-02601MW1101REMSYN02327496 70076 83310 82220
0073010570999991980032212004+69367+024433FM-12+028599999V0209991C00001220001CN0039001N9-00701-01201999999ADDAY121999GA1041+006009009GF104991041001004501001031MW1701REMSYN00584020
0144010570999991980032218004+69367+024433FM-12+028599999V0209991C00001006001CN0750001N9-01001-01301999999ADDAA199999929AY121999GA1041+003009059GA2031+006009009GF107991041051002501001031KA1999M+99999MW1021REMSYN01779767 84610 83020EQDQ01 -01702ATMX  
0149010570999991980032306004+69367+024433FM-12+028599999V0209991C00001006001CN0750001N9-00901-01001999999ADDAA199999929AY171999GA1041+003009059GA2031+006009039GF107991041051002501031001IA1009IA2999-01409KA1999N-01301MW1021REMSYN02326406 79763 84610 83320
0073010570999991980032312004+69367+024433FM-12+028599999V0201601N00101220001CN0750001N9-00401-01101999999ADDAY121999GA1041+006009029GF104991021001004501001011MW1021REMSYN00584220
0109010570999991980032318004+69367+024433FM-12+028599999V0209991C00001030001CN0750001N9+00001-00601999999ADDAA199000091AY121999GA1041+006009039GF108991041051002501031001KA1999M+00001MW1021REMSYN01770050 84610 84320
0127010570999991980032406004+69367+024433FM-12+028599999V0209991C00001003001CN0750001N9-01301-01601999999ADDAA199000091AY141999GA1081+003009049GF108991081001002501021999IA1319IA2999-01609KA1999N-01701MW1021REMSYN01726696 70067 88410
0043010570999991980032412004+69367+024433FM-12+028599999V0209991C00001220001CN0750001N9-00301-00501999999ADDAY101999GF104991041001002501031001MW1021
0122010570999991980032418004+69367+024433FM-12+028599999V0209991C00001003001CN0750001N9+00001-00601999999ADDAA199000091AY121999GA1081+003009059GF108991081051002501001001KA1999M+99999MW1021REMSYN01170053 88610EQDQ01 -00302ATMX  
0133010570999991980032506004+69367+024433FM-12+028599999V0209991C000019999999N0039001N9-01601-01901999999ADDAA199000091AY141999GA1031+006009029GF106991031001002501031081IA1319IA2999-01709KA1999N-01801MW1461REMSYN02326796 70068 83310 83220
0043010570999991980032512004+69367+024433FM-12+028599999V0209991C00001220001CN0750001N9-00601-01001999999ADDAY121999GF103991031001002501031001MW1021
0081010570999991980032518004+69367+024433FM-12+028599999V0209991C000019999999N0750001N9-01101-01501999999ADDAA199000091AY121999GF105991031001002501031081KA1999M+00001MW1021REMSYN00570050
0127010570999991980032606004+69367+024433FM-12+028599999V0209991C00001220001CN0750001N9-02101-02401999999ADDAA199000091AY101999GA1021+006009029GF102991021001004501001081IA1319IA2999-02209KA1999N-02201MW1021REMSYN01727296 70072 82220
0073010570999991980032612004+69367+024433FM-12+028599999V0209991C00001220001CN0750001N9+00002-00702999999ADDAY101999GA1041+006009029GF104991041001004501001081MW1021REMSYN00584220
0068010570999991980032618004+69367+024433FM-12+028599999V0209991C00001220001CN0750001N9-00901-01301999999ADDAA199008091AY101999GF104991041001004501001081MW1021REMSYN0057080/
0127010570999991980032706004+69367+024433FM-12+028599999V0209991C00001006001CN0750001N9-02001-02301999999ADDAA199000091AY141999GA1051+006009029GF105991051001004501001081IA1319IA2999-02209KA1999N-02301MW1021REMSYN01727296 70073 85220
0073010570999991980032712004+69367+024433FM-12+028599999V0209991C00001220001CN0750001N9-00601-01401999999ADDAY101999GA1031+003009039GF103991031001002501031001MW1021REMSYN00583310
0103010570999991980032718004+69367+024433FM-12+028599999V0209991C00001220001CN0750001N9-01301-01901999999ADDAA199000091AY101999GA1041+003009039GF104991041001002501031001KA1999M-00601MW1021REMSYN01170056 84310
0127010570999991980032806004+69367+024433FM-12+028599999V0209991C00001006001CN0750001N9-02501-02801999999ADDAA199000091AY121999GA1081+006009029GF108991081001004501001081IA1319IA2999-02609KA1999N-02701MW1021REMSYN01727696 70077 88220
0073010570999991980032812004+69367+024433FM-12+028599999V0209991C00001220001CN0750001N9-00702-01601999999ADDAY101999GA1041+006009029GF104991041001004501041001MW1021REMSYN00584220
0103010570999991980032818004+69367+024433FM-12+028599999V0209991C000019999999N0750001N9-01101-01801999999ADDAA199000091AY121999GA1021+003009039GF107991051001002501031081KA1999M-00501MW1021REMSYN01170055 82310
0105010570999991980032906004+69367+024433FM-12+028599999V0200901N00101002101CN0200001N9-00901-01101999999ADDAA199000291AY181999GF108991081091002501999999IA1209IA2999-01509KA1999N-01001MW1851REMSYN01126576 79260
0073010570999991980032912004+69367+024433FM-12+028599999V0209999999999003001CN0080001N9-00601-00901999999ADDAY181999GA1081+003009049GF108991081001002501021001MW1851REMSYN00588410
0122010570999991980032918004+69367+024433FM-12+028599999V0200901N00261003001CN0029001N9-00601-00801999999ADDAA199000291AY181999GA1081+003009049GF108991081001002501021001KA1999M+99999MW1701REMSYN01179260 88410EQDQ01 -01002ATMX  
0127010570999991980033006004+69367+024433FM-12+028599999V0209999999999003001CN0029001N9-00601-00801999999ADDAA199001091AY171999GA1081+003009049GF108991081001002501021001IA1319IA2999-00609KA1999N-00701MW1701REMSYN01725696 70157 88410
0081010570999991980033018004+69367+024433FM-12+028599999V0200901N00411002101CN0019001N9-00601-00901999999ADDAA199001091AY171999GF108991081001002501021999KA1999M+00001MW1701REMSYN00570150
0105010570999991980033106004+69367+024433FM-12+028599999V0200901N00261002101CN0029001N9-00801-01101999999ADDAA199001091AY171999GF108991081001002501021001IA1319IA2999+00009KA1999N-00801MW1701REMSYN01125097 70158
0043010570999991980033112004+69367+024433FM-12+028599999V0200901N00311002101CN0049001N9-00901-01301999999ADDAY131999GF108991081001002501021999MW1381
0103010570999991980033118004+69367+024433FM-12+028599999V0200901N00211003001CN0039001N9+00001-00201999999ADDAA199001091AY171999GA1081+003009049GF108991081001002501021001KA1999M+00001MW1701REMSYN01170150 88410
0127010570999991980040106004+69367+024433FM-12+028599999V0200901N00151003001CN0029001N9-00701-00901999999ADDAA199002091AY171999GA1081+003009049GF108991081001002501021001IA1319IA2999-00609KA1999N-00701MW1701REMSYN01725697 70257 88410
0087010570999991980040112004+69367+024433FM-12+028599999V0200901N00211003001CN0049001N9-00501-01001999999ADDAY171999GA1081+003009049GF108991081001002501021001MW1701WG199190099999REMSYN00588410
0103010570999991980040118004+69367+024433FM-12+028599999V0200901N00101003001CN0750001N9+00001-00401999999ADDAA199000391AY121999GA1081+003009049GF108991081001002501021001KA1999M+00001MW1021REMSYN01179350 88410
0105010570999991980040206004+69367+024433FM-12+028599999V0209991C00001001201CN0039001N9-00501-00701999999ADDAA199000091AY141999GF108991081061001501001001IA1319IA2999-00609KA1999N-00501MW1441REMSYN01125697 70055
0073010570999991980040212004+69367+024433FM-12+028599999V0200901N00151220001CN0750001N9-00101-00701999999ADDAY121999GA1041+003009039GF104991041001002501031001MW1021REMSYN00584310
0103010570999991980040218004+69367+024433FM-12+028599999V0201601N00211003001CN0750001N9-00101-00601999999ADDAA199000091AY121999GA1081+003009049GF108991081001002501021001KA1999M-00101MW1021REMSYN01170051 88410
0092010570999991980040312004+69367+024433FM-12+028599999V0201801N00261003001CN0750001N9+00001-00501999999ADDAY121999GA1081+003009079GF108991999061002501021001MW1021REMSYN00588710EQDQ01+000082SCOTLC
0081010570999991980040318004+69367+024433FM-12+028599999V0201801N00151002101CN0750001N9-00101-00501999999ADDAA199000091AY121999GF108991081061002501999999KA1999M+00101MW1021REMSYN00570001
0146010570999991980040406004+69367+024433FM-12+028599999V0209991C00001220001CN0750001N9-00701-01001999999ADDAA199999929AY171999GA1041+003009099GF104991041999002501001091IA1319IA2999-00209KA1999N-00701MW1021REMSYN01725297 79757 84910EQDQ01+000002SCOLCG
0043010570999991980040412004+69367+024433FM-12+028599999V0209991C00001220001CN0750001N9+00201-00501999999ADDAY101999GF103991031001004501031001MW1021
0103010570999991980040418004+69367+024433FM-12+028599999V0209991C00001003001CN0750001N9-00101-00401999999ADDAA199999929AY121999GA1081+003009059GF108991081051002501001001KA1999M+00201MW1021REMSYN01179702 88610
0127010570999991980040506004+69367+024433FM-12+028599999V0209991C00001003001CN0750001N9-00601-00701999999ADDAA199000091AY141999GA1081+003009009GF108991081001002501001021IA1319IA2999-01009KA1999N-01001MW1021REMSYN01726097 70060 88010
0073010570999991980040512004+69367+024433FM-12+028599999V0201601N00211003001CN0750001N9+00101-00401999999ADDAY181999GA1081+003009079GF108991081061002501001001MW1021REMSYN00588710
0103010570999991980040518004+69367+024433FM-12+028599999V0201801N00151003001CN0039001N9+00001-00201999999ADDAA199001091AY171999GA1081+003009049GF108991081001002501021001KA1999M+00101MW1701REMSYN01170101 88410
0133010570999991980040606004+69367+024433FM-12+028599999V0209991C00001075001CN0750001N9+00201-00201999999ADDAA199002091AY171999GA1041+006009029GF108991041001002501021081IA1319IA2999-00209KA1999N+00201MW1021REMSYN02325297 70202 84410 84220
0043010570999991980040612004+69367+024433FM-12+028599999V0201801N00151002101CN0039001N9+00401+00001999999ADDAY161999GF108991081001002501021999MW1601
0125010570999991980040618004+69367+024433FM-12+028599999V0202201N001519999999N0750001N9+00301-00201999999ADDAA199000091AY101999GA1031+003009039GA2021+006009029GF105991031001002501031021KA1999M+00301MW1021REMSYN01770003 83310 82220
0105010570999991980040706004+69367+024433FM-12+028599999V0202201N001519999999N0750001N9+00001-00401999999ADDAA199000091AY121999GF107991031001002501031021IA1319IA2999-00309KA1999N-00201MW1021REMSYN01125397 70052
0073010570999991980040712004+69367+024433FM-12+028599999V0202201N00151003001CN0750001N9+00201-00401999999ADDAY121999GA1071+003009049GF107991071001002501021001MW1021REMSYN00587410
0138010570999991980040718004+69367+024433FM-12+028599999V0209991C00001003001CN0029001N9+00101+00001999999ADDAA199999999AY121999GA1081+003009049GF108991081001002501021001KA1999M+99999MW1711REMSYN01170000 88410EQDQ01  00002PRCP99Q02 +00002ATMX  
0127010570999991980040806004+69367+024433FM-12+028599999V0209991C00001003001CN0039001N9+00001-00101999999ADDAA199001091AY171999GA1081+003009049GF108991081001002501021001IA1319IA2999+00009KA1999N-00701MW1701REMSYN01720097 70157 88410
0081010570999991980040818004+69367+024433FM-12+028599999V0200901N00151002101CN0750001N9+00001-00501999999ADDAA199000191AY171999GF108991081001002501021999KA1999M+00001MW1021REMSYN00579100
0127010570999991980040906004+69367+024433FM-12+028599999V0209991C00001220001CN0750001N9-01701-02001999999ADDAA199000091AY101999GA1041+006009029GF104991041001002501001081IA1319IA2999-01909KA1999N-02201MW1021REMSYN01726997 70072 84220
0043010570999991980040912004+69367+024433FM-12+028599999V0209991C00001220001CN0750001N9-00701-01301999999ADDAY101999GF100991001001999999001001MW1021
0122010570999991980040918004+69367+024433FM-12+028599999V0209991C00001006001CN0039001N9-00701-01101999999ADDAA199999999AY141999GA1081+006009029GF108991081001002501001021KA1999M-00701MW1771REMSYN01170057 88220EQDQ01  00002PRCP99
0127010570999991980041006004+69367+024433FM-12+028599999V0209991C00001003001CN0039001N9-00801-01101999999ADDAA199000591AY171999GA1081+003009049GF108991081001002501021001IA1319IA2999-00909KA1999N-01001MW1701REMSYN01725997 79560 88410
0073010570999991980041012004+69367+024433FM-12+028599999V0200901N00211003001CN0049001N9-00801-01301999999ADDAY121999GA1081+003009059GF108991081051002501001001MW1701REMSYN00588610
0095010570999991980041018004+69367+024433FM-12+028599999V0200901N00151002101CN0750001N9-00401-00801999999ADDAA199000091AY121999GF108991081051002501999999KA1999M-00301MW1021WG199010199999REMSYN00570053
0105010570999991980041106004+69367+024433FM-12+028599999V0200901N00151002101CN0049001N9-00501-00701999999ADDAA199000491AY171999GF108991081031002501999999IA1319IA2999-00809KA1999N-00701MW1701REMSYN01125897 79457
0073010570999991980041112004+69367+024433FM-12+028599999V0201001N00101003001CN0750001N9-00201-00701999999ADDAY121999GA1081+003009059GF108991081051002501001001MW1021REMSYN00588610
0103010570999991980041118004+69367+024433FM-12+028599999V0209991C00001003001CN0750001N9-00301-00701999999ADDAA199999929AY121999GA1081+003009049GF108991081001002501021001KA1999M-00301MW1021REMSYN01179753 88410
0127010570999991980041206004+69367+024433FM-12+028599999V0209991C00001003001CN0750001N9-01601-02001999999ADDAA199000091AY141999GA1051+003009079GF105991051061002501001001IA1319IA2999-01909KA1999N-02201MW1021REMSYN01726997 70072 85710
0073010570999991980041212004+69367+024433FM-12+028599999V0209991C00001220001CN0750001N9-00301-01201999999ADDAY101999GA1031+003009039GF103991031001002501031001MW1021REMSYN00583310
0081010570999991980041218004+69367+024433FM-12+028599999V0209991C00001220001CN0750001N9-00501-01101999999ADDAA199000091AY101999GF104991041001002501031001KA1999M+00101MW1021REMSYN00570001
0127010570999991980041306004+69367+024433FM-12+028599999V0209991C00001220001CN0750001N9-01401-01601999999ADDAA199000091AY101999GA1021+006009039GF102991021001004501031001IA1319IA2999-01509KA1999N-01701MW1021REMSYN01726597 70067 82320
0057010570999991980041312004+69367+024433FM-12+028599999V0202501N00211220001CN0750001N9+00001-00801999999ADDAY101999GF102991021001004501031001MW1021WG199370199999
0125010570999991980041318004+69367+024433FM-12+028599999V0209991C00001220001CN0750001N9-00601-01701999999ADDAA199000091AY101999GA1011+003009039GA2031+006009009GF103991021001004501031021KA1999M+00201MW1021REMSYN01770002 81310 83020
0127010570999991980041406004+69367+024433FM-12+028599999V0209991C00001003001CN0750001N9-01101-01401999999ADDAA199000091AY121999GA1081+003009049GF108991081001002501021001IA1319IA2999-01909KA1999N-01901MW1021REMSYN01726997 70069 88410
0073010570999991980041412004+69367+024433FM-12+028599999V0201601N00151003001CN0750001N9+00101-00401999999ADDAY181999GA1081+003009049GF108991081001002501021001MW1021REMSYN00588410
0081010570999991980041418004+69367+024433FM-12+028599999V0201801N00211002101CN0200001N9+00101-00101999999ADDAA199999929AY141999GF108991081001002501021001KA1999M+00201MW1101REMSYN00579702
0168010570999991980041506004+69367+024433FM-12+028599999V0209991C00001003001CN0750001N9-00201-00601999999ADDAA199000091AY121999GA1071+003009049GA2011+006009099GF108991071999002501021091IA1319IA2999-01309KA1999N-01101MW1021REMSYN02326397 70061 87410 81920EQDQ01+000002SCOLCG
0043010570999991980041512004+69367+024433FM-12+028599999V0203601N00211220001CN0750001N9-00601-01301999999ADDAY101999GF104991031011002501031001MW1021
0125010570999991980041518004+69367+024433FM-12+028599999V0203601N00151006001CN0750001N9+00201-00401999999ADDAA199000091AY121999GA1041+003009059GA2021+006009039GF106991041051002501031001KA1999M+00201MW1021REMSYN01770002 84610 82320
0105010570999991980041606004+69367+024433FM-12+028599999V0209991C000019999999N0750001N9-00601-01001999999ADDAA199000091AY121999GF106991061001002501051001IA1319IA2999-01009KA1999N-01001MW1021REMSYN01126097 70060
0073010570999991980041612004+69367+024433FM-12+028599999V0201601N00261006001CN0750001N9+00301-00501999999ADDAY101999GA1081+006009019GF108991081001004501011001MW1021REMSYN00588120
0103010570999991980041618004+69367+024433FM-12+028599999V0202201N00261006001CN0750001N9+00201-00201999999ADDAA199000091AY121999GA1081+006009049GF108991081001004501021001KA1999M+00301MW1021REMSYN01170003 88420
0149010570999991980041706004+69367+024433FM-12+028599999V0201801N00151006001CN0750001N9+00001-00401999999ADDAA199000091AY121999GA1021+003009059GA2051+006009049GF107991021051002501021001IA1319IA2999-00209KA1999N+00001MW1021REMSYN02325297 70000 82610 85420
0043010570999991980041712004+69367+024433FM-12+028599999V0201801N00151075001CN0750001N9+00401-00101999999ADDAY101999GF106991021051002501001031MW1021
0122010570999991980041718004+69367+024433FM-12+028599999V0201801N00211006001CN0750001N9+00301-00101999999ADDAA199000091AY121999GA1081+006009049GF108991081001004501021001KA1999M+99999MW1021REMSYN01170000 88420EQDQ01 +00002ATMX  
0073010570999991980041812004+69367+024433FM-12+028599999V0209991C00001006001CN0029001N9+00201-00101999999ADDAY171999GA1081+006009049GF108991081001004501021001MW1701REMSYN00588420
0122010570999991980041818004+69367+024433FM-12+028599999V0201401N00311006001CN0049001N9+00101-00201999999ADDAA199002091AY171999GA1081+006009049GF108991081001004501021001KA1999M+99999MW1101REMSYN01170200 88420EQDQ01 +00002ATMX  
0127010570999991980041906004+69367+024433FM-12+028599999V0200901N00211003001CN0750001N9-00201-00801999999ADDAA199999929AY181999GA1081+003009059GF108991081051002501001001IA1319IA2999-00609KA1999N-00401MW1021REMSYN01725696 79754 88610
0073010570999991980041912004+69367+024433FM-12+028599999V0209991C00001006001CN0750001N9-00301-01101999999ADDAY121999GA1061+006009009GF106991061001004501001061MW1021REMSYN00586020
0103010570999991980041918004+69367+024433FM-12+028599999V0209991C00001003001CN0750001N9+00101-00701999999ADDAA199000091AY121999GA1071+003009039GF108991081061002501001001KA1999M+00301MW1021REMSYN01170003 87310
0133010570999991980042006004+69367+024433FM-12+028599999V0209991C000019999999N0750001N9-00301-00801999999ADDAA199000091AY121999GA1031+006009049GF106991031001002501031041IA1319IA2999-00709KA1999N-00601MW1021REMSYN02325796 70056 83310 83420
0073010570999991980042012004+69367+024433FM-12+028599999V0209991C00001006001CN0750001N9+00001-00501999999ADDAY121999GA1081+006009049GF108991081001004501021001MW1021REMSYN00588420
0152010570999991980042106004+69367+024433FM-12+028599999V0203601N00151220001CN0750001N9-00501-00801999999ADDAA199000091AY101999GA1021+006009009GF104991021021002501001031IA1319IA2999-00709KA1999N+99999MW1021REMSYN02325796 70050 82810 82020EQDQ01 +00002ATMN  
0073010570999991980042112004+69367+024433FM-12+028599999V0203601N00101003001CN0750001N9+00001-00601999999ADDAY121999GA1051+003009089GF105991051021002501001001MW1021REMSYN00585810
0117010570999991980042118004+69367+024433FM-12+028599999V0209991C00001220001CN0750001N9+00001-00601999999ADDAA199000091AY121999GA1021+003009039GF102991021001004501031001KA1999M+00001MW1021WG199030099999REMSYN01170050 82310
0105010570999991980042206004+69367+024433FM-12+028599999V0209991C000019999999N0750001N9-00201-00601999999ADDAA199999929AY171999GF106991061001004501001071IA1319IA2999-00909KA1999N-00601MW1021REMSYN01125996 79756
0079010570999991980042212004+69367+024433FM-12+028599999V0202201N002619999999N0750001N9+00101-00501999999ADDAY121999GA1031+006009009GF106991031001002501031021MW1021REMSYN01183310 83020
0144010570999991980042218004+69367+024433FM-12+028599999V0202201N002119999999N0750001N9+00301-00301999999ADDAA199000091AY121999GA1021+003009039GA2031+006009009GF105991021001002501031041KA1999M+99999MW1021REMSYN01770002 82310 83020EQDQ01 +00202ATMX  
0127010570999991980042306004+69367+024433FM-12+028599999V0209991C00001006001CN0750001N9+00201-00401999999ADDAA199000091AY121999GA1051+006009039GF105991051001004501031001IA1319IA2999+00009KA1999N+00101MW1021REMSYN01725096 70001 85320
0043010570999991980042312004+69367+024433FM-12+028599999V0202201N002119999999N0750001N9+00501-00301999999ADDAY101999GF106991061001004501031001MW1021
0125010570999991980042318004+69367+024433FM-12+028599999V0202201N00151030001CN0750001N9+00401-00301999999ADDAA199000091AY101999GA1031+003009059GA2021+006009039GF105991031051002501041001KA1999M+00501MW1021REMSYN01770005 83610 82320
0127010570999991980042406004+69367+024433FM-12+028599999V0202201N00151006001CN0750001N9+00201-00601999999ADDAA199000091AY121999GA1081+006009049GF108991081001004501021001IA1319IA2999-00209KA1999N+00101MW1021REMSYN01725295 70001 88420
0057010570999991980042412004+69367+024433FM-12+028599999V0203001N00151220001CN0750001N9+00001-00601999999ADDAY171999GF106991021001002501021061MW1021WG199260099999
0081010570999991980042418004+69367+024433FM-12+028599999V0202001N00151220001CN0750001N9+00001-00901999999ADDAA199002091AY121999GF100991001001999999001001KA1999M+00401MW1021REMSYN00570204
0127010570999991980042506004+69367+024433FM-12+028599999V0202701N00361006001CN0750001N9-00401-01101999999ADDAA199000091AY121999GA1081+006009029GF108991081001004501001061IA1319IA2999-00809KA1999N-00601MW1021REMSYN01725895 70056 88220
0095010570999991980042512004+69367+024433FM-12+028599999V0202701N003119999999N0750001N9+00101-00701999999ADDAY121999GA1021+003009039GA2031+006009009GF105991021001002501031041MW1021REMSYN01182310 83020
0109010570999991980042518004+69367+024433FM-12+028599999V0202701N00151220001CN0750001N9+00101-00801999999ADDAA199000091AY101999GA1021+006009009GF104991021001002501031041KA1999M+00401MW1021REMSYN01770004 82310 82020
0105010570999991980042606004+69367+024433FM-12+028599999V0209991C00001220001CN0750001N9+00001-00901999999ADDAA199000091AY101999GF100991001001999999001001IA1319IA2999-00909KA1999N-00501MW1021REMSYN01125995 70055
0043010570999991980042612004+69367+024433FM-12+028599999V0209991C000019999999N0750001N9+00301-00501999999ADDAY121999GF106991061001004501001061MW1021
0125010570999991980042618004+69367+024433FM-12+028599999V0209991C00001006001CN0750001N9+00301-00401999999ADDAA199000091AY121999GA1031+003009039GA2041+006009009GF107991031001002501031061KA1999M+00501MW1021REMSYN01770005 83310 84020
0105010570999991980042706004+69367+024433FM-12+028599999V0209991C00001075001CN0750001N9+00001-00401999999ADDAA199000091AY121999GF108991041051002501001021IA1319IA2999-00509KA1999N+00001MW1021REMSYN01125595 70000
0073010570999991980042712004+69367+024433FM-12+028599999V0201801N00211220001CN0750001N9+00301-00401999999ADDAY101999GA1031+006009009GF103991031001004501001021MW1021REMSYN00583020
0081010570999991980042718004+69367+024433FM-12+028599999V0201801N00101220001CN0750001N9+00301-00501999999ADDAA199000091AY121999GF100991001001999999001001KA1999M+00401MW1021REMSYN00570004
0105010570999991980042806004+69367+024433FM-12+028599999V0201401N00151220001CN0750001N9+00001-00801999999ADDAA199000091AY101999GF100991001001999999001001IA1319IA2999-01009KA1999N-00301MW1021REMSYN01126095 70053
0043010570999991980042812004+69367+024433FM-12+028599999V0201401N00151220001CN0750001N9+00401-00501999999ADDAY101999GF102991021001002501001081MW1021
0081010570999991980042818004+69367+024433FM-12+028599999V0209991C000019999999N0750001N9+00301-00301999999ADDAA199000091AY121999GF105991031001002501031091KA1999M+00401MW1021REMSYN00570004
0127010570999991980042906004+69367+024433FM-12+028599999V0201401N00151003001CN0750001N9+00101+00001999999ADDAA199000091AY141999GA1081+003009049GF108991081001002501021999IA1319IA2999-00109KA1999N+00001MW1021REMSYN01725195 70050 88410
0122010570999991980042918004+69367+024433FM-12+028599999V0202401N00101003001CN0019001N9+00201+00101999999ADDAA199000091AY141999GA1081+003009079GF108991081061001501999999KA1999M+00301MW1461REMSYN01170003 88710EQDQ01+000472PRSWM1
0105010570999991980043006004+69367+024433FM-12+028599999V0209991C00001004201CN0750001N9+00201+00101999999ADDAA199003091AY171999GF108991081001004501021999IA1319IA2999+00109KA1999N+00101MW1021REMSYN01120196 70301
0079010570999991980043012004+69367+024433FM-12+028599999V0203601N00211030001CN0750001N9+00301-00301999999ADDAY121999GA1041+006009049GF106991041051002501021001MW1021REMSYN01184610 84420
0109010570999991980043018004+69367+024433FM-12+028599999V0203601N00151030001CN0049001N9+00201-00301999999ADDAA199999929AY121999GA1031+006009049GF106991031051002501021001KA1999M+00401MW1701REMSYN01779704 83610 83420
0105010570999991980050106004+69367+024433FM-12+028599999V0209991C00001002101CN0750001N9-00201-00601999999ADDAA199000491AY171999GF108991081001002501021001IA1009IA2999-00309KA1999N-00201MW1021REMSYN01125306 79452
0095010570999991980050112004+69367+024433FM-12+028599999V0203601N00151006001CN0750001N9+00101-00701999999ADDAY121999GA1031+003009059GA2041+006009039GF107991031051002501081001MW1021REMSYN01183610 84320
0103010570999991980050118004+69367+024433FM-12+028599999V0201401N00101003001CN0049001N9-00101-00301999999ADDAA199999929AY141999GA1081+003009049GF108991081001002501021001KA1999M+00301MW1701REMSYN01179703 88410
0149010570999991980050206004+69367+024433FM-12+028599999V0209991C00001006001CN0750001N9+00201+00101999999ADDAA199005091AY171999GA1021+003009039GA2041+006009009GF106991021041002501001021IA1319IA2999-00209KA1999N-00101MW1021REMSYN02325296 70551 82310 84020
0073010570999991980050212004+69367+024433FM-12+028599999V0209991C00001003001CN0750001N9+00501+00101999999ADDAY121999GA1081+003009049GF108991081001002501021001MW1021REMSYN00588410
0081010570999991980050218004+69367+024433FM-12+028599999V0209991C00001075001CN0750001N9+00301+00001999999ADDAA199000091AY121999GF108991031051002501001031KA1999M+00301MW1021REMSYN00570003
0127010570999991980050306004+69367+024433FM-12+028599999V0202701N00311030001CN0750001N9+00501-00101999999ADDAA199000091AY121999GA1041+003009059GF106991041051002501031001IA1319IA2999+00009KA1999N+00301MW1021REMSYN01725096 70003 84610
0079010570999991980050312004+69367+024433FM-12+028599999V0202701N00101030001CN0750001N9+00501-00101999999ADDAY121999GA1031+006009039GF106991031051002501031001MW1021REMSYN01183610 83320
0125010570999991980050318004+69367+024433FM-12+028599999V0202701N00151006001CN0750001N9+00401-00601999999ADDAA199000091AY121999GA1031+003009059GA2021+006009089GF105991031051002501031001KA1999M+00401MW1021REMSYN01770004 83610 82820
0095010570999991980050412004+69367+024433FM-12+028599999V0202701N00101006001CN0750001N9+00501-00101999999ADDAY121999GA1041+003009059GA2021+006009039GF106991041051002501031001MW1021REMSYN01184610 82320
0125010570999991980050418004+69367+024433FM-12+028599999V0209991C00001030001CN0750001N9+00301-00201999999ADDAA199000091AY121999GA1031+003009089GA2021+006009039GF105991031021002501031001KA1999M+00501MW1021REMSYN01770005 83810 82320
0127010570999991980050506004+69367+024433FM-12+028599999V0209991C00001003001CN0019001N9-00101-00201999999ADDAA199000391AY171999GA1081+003009079GF108991081061002501001001IA1319IA2999-00209KA1999N-00201MW1701REMSYN01725296 79352 88710
0073010570999991980050512004+69367+024433FM-12+028599999V0209991C00001003001CN0049001N9+00101-00201999999ADDAY121999GA1081+003009049GF108991081001002501021001MW1101REMSYN00588410
0103010570999991980050518004+69367+024433FM-12+028599999V0200901N00101003001CN0019001N9+00001-00201999999ADDAA199999929AY121999GA1061+003009039GF108991081061002501999999KA1999M+00401MW1701REMSYN01179704 86310
0127010570999991980050606004+69367+024433FM-12+028599999V0209991C00001003001CN0029001N9+00001-00201999999ADDAA199004091AY171999GA1081+003009049GF108991081001002501021001IA1319IA2999-00209KA1999N-00201MW1701REMSYN01725296 70452 88410
0103010570999991980050618004+69367+024433FM-12+028599999V0209991C00001003001CN0750001N9+00001-00601999999ADDAA199000091AY121999GA1081+003009059GF108991081051002501001001KA1999M+00201MW1021REMSYN01170002 88610
0127010570999991980050706004+69367+024433FM-12+028599999V0209991C00001003001CN0029001N9-00201-00501999999ADDAA199000291AY141999GA1081+003009079GF108991081061002501999999IA1319IA2999-00409KA1999N-00301MW1701REMSYN01725496 79253 88710
0043010570999991980050712004+69367+024433FM-12+028599999V0209991C00001002101CN0019001N9-00101-00201999999ADDAY171999GF108991081061002501001001MW1701
0100010570999991980050718004+69367+024433FM-12+028599999V0200901N00101030001CN0750001N9+00501+00001999999ADDAA199002091AY141999GF106991041051002501031001KA1999M+99999MW1021REMSYN00570252EQDQ01 -00202ATMX  
0149010570999991980050806004+69367+024433FM-12+028599999V0209991C00001006001CN0750001N9+00001-00501999999ADDAA199000591AY171999GA1031+003009089GA2041+006009009GF107991031021002501001031IA1319IA2999-00309KA1999N+00001MW1021REMSYN02379500 25396 83810 84020
0073010570999991980050812004+69367+024433FM-12+028599999V0209991C00001220001CN0750001N9+00201-00501999999ADDAY121999GA1041+006009009GF104991041001002501001041MW1021REMSYN00584020
0144010570999991980050818004+69367+024433FM-12+028599999V0209991C00001003001CN0750001N9+00501-00101999999ADDAA199000091AY121999GA1081+003009039GA2021+006009039GF199999031021002501001041KA1999M+00501MW1021REMSYN01770005 88310 82320EQDQ01+000052SCOTCV
0127010570999991980050906004+69367+024433FM-12+028599999V0200901N00311003001CN0039001N9-00201-00501999999ADDAA199001091AY171999GA1081+003009049GF108991081001002501021999IA1319IA2999-00309KA1999N-00201MW1701REMSYN01725396 70152 88410
0081010570999991980050918004+69367+024433FM-12+028599999V0200901N00361002101CN0008001N9-00301-00401999999ADDAA199002091AY171999GF108991081001002501021999KA1999M-00201MW1701REMSYN00570252
0105010570999991980051006004+69367+024433FM-12+028599999V0200901N00411002101CN0019001N9+00001-00201999999ADDAA199005091AY171999GF108991081001002501021999IA1319IA2999-00509KA1999N-00401MW1411REMSYN01125596 70554
0095010570999991980051012004+69367+024433FM-12+028599999V0203601N00461075001CN0750001N9+00001-00401999999ADDAY171999GA1031+003009089GA2021+006009009GF105991031021002501001031MW1021REMSYN01183810 82020
0100010570999991980051018004+69367+024433FM-12+028599999V0203601N00411220001CN0750001N9-00201-00701999999ADDAA199999929AY121999GF105991031021002501001081KA1999M+99999MW1021REMSYN00579754EQDQ01 -00402ATMX  
0127010570999991980051106004+69367+024433FM-12+028599999V0203601N00151220001CN0750001N9-00301-00901999999ADDAA199000191AY171999GA1021+006009039GF102991021001004501031001IA1009IA2999-00609KA1999N-00501MW1021REMSYN01725606 79155 82320
0043010570999991980051112004+69367+024433FM-12+028599999V0203601N00151220001CN0750001N9+00001-00701999999ADDAY121999GF104991041021002501001001MW1021
0081010570999991980051118004+69367+024433FM-12+028599999V0203601N00101002101CN0029001N9-00101-00601999999ADDAA199999929AY121999GF108991081001002501021999KA1999M-00101MW1701REMSYN00579751
0043010570999991980051212004+69367+024433FM-12+028599999V0203601N00261002101CN0750001N9+00101-00701999999ADDAY121999GF108991051031002501001061MW1021
0125010570999991980051218004+69367+024433FM-12+028599999V0203601N00311075001CN0750001N9+00001-00601999999ADDAA199000091AY121999GA1021+003009009GA2031+006009009GF105991021041002501001021KA1999M+00201MW1021REMSYN01770002 82010 83020
0127010570999991980051306004+69367+024433FM-12+028599999V0202701N00151003001CN0750001N9-00101-00401999999ADDAA199000391AY171999GA1081+003009049GF108991081001002501021001IA1319IA2999-00409KA1999N-00201MW1021REMSYN01725496 79352 88410
0092010570999991980051312004+69367+024433FM-12+028599999V0202701N00151003001CN0750001N9+00201-00401999999ADDAY161999GA1081+003009089GF108991999021002501001001MW1021REMSYN00588810EQDQ01+000062SCOTLC
0109010570999991980051318004+69367+024433FM-12+028599999V0209991C00001220001CN0750001N9+00401-00301999999ADDAA199999929AY121999GA1041+006009009GF108991041051002501001041KA1999M+00401MW1021REMSYN01779704 84510 84020
0133010570999991980051406004+69367+024433FM-12+028599999V0209991C00001075001CN0750001N9+00501-00101999999ADDAA199000091AY121999GA1041+006009029GF108991041051002501001081IA1319IA2999-00209KA1999N+00301MW1021REMSYN02325296 70003 84610 84220
0073010570999991980051412004+69367+024433FM-12+028599999V0209991C00001001501CN0750001N9+00701-00101999999ADDAY121999GA1081+001509079GF108991081061001501999999MW1021REMSYN00588705
0103010570999991980051418004+69367+024433FM-12+028599999V0209991C00001001501CN0750001N9+00601+00001999999ADDAA199000091AY121999GA1081+001509029GF108991081061001501001001KA1999M+00701MW1021REMSYN01170007 88205
0127010570999991980051506004+69367+024433FM-12+028599999V0209991C00001001501CN0038001N9+00601+00101999999ADDAA199000091AY141999GA1081+001509079GF108991081061001501999999IA1319IA2999-00209KA1999N+00101MW1421REMSYN01725295 70001 88705
0127010570999991980051606004+69367+024433FM-12+028599999V0209991C00001003001CN0750001N9+00701+00301999999ADDAA199000591AY101999GA1051+003009039GF107991041051002501031001IA1319IA2999-00209KA1999N+00201MW1021REMSYN01725295 79502 85310
0043010570999991980051612004+69367+024433FM-12+028599999V0209991C00001220001CN0750001N9+00901+00101999999ADDAY121999GF103991031001002501031051MW1021
0081010570999991980051618004+69367+024433FM-12+028599999V0200901N00211220001CN0750001N9+00601+00101999999ADDAA199000091AY121999GF104991021051002501001091KA1999M+00601MW1021REMSYN00570006
0127010570999991980051706004+69367+024433FM-12+028599999V0209991C00001003001CN0750001N9+00401+00101999999ADDAA199000091AY121999GA1081+003009059GF108991081051002501001001IA1089IA2999-00909KA1999N+00201MW1021REMSYN01725915 70002 88610
0073010570999991980051712004+69367+024433FM-12+028599999V0200901N00151003001CN0750001N9+00401+00001999999ADDAY161999GA1081+003009029GF108991081031002501999999MW1021REMSYN00588210
0109010570999991980051718004+69367+024433FM-12+028599999V0209991C00001030001CN0750001N9+00401-00101999999ADDAA199999929AY121999GA1031+006009039GF106991031051002501031001KA1999M+00601MW1021REMSYN01779706 83610 83320
0127010570999991980051806004+69367+024433FM-12+028599999V0200901N00211003001CN0029001N9-00201-00401999999ADDAA199001091AY171999GA1081+003009049GF108991081001002501021999IA1319IA2999-00309KA1999N-00201MW1701REMSYN01725395 70152 88410
0073010570999991980051812004+69367+024433FM-12+028599999V0200901N00211003001CN0049001N9-00101-00701999999ADDAY121999GA1081+003009059GF108991081051002501999999MW1051REMSYN00588610
0127010570999991980051906004+69367+024433FM-12+028599999V0209991C00001003001CN0750001N9-00201-00701999999ADDAA199999929AY171999GA1061+003009029GF106991061021002501001001IA1319IA2999-00409KA1999N-00301MW1021REMSYN01725495 79753 86210
0073010570999991980051912004+69367+024433FM-12+028599999V0201401N00151003001CN0750001N9+00101-00901999999ADDAY121999GA1071+003009029GF107991071021002501001001MW1021REMSYN00587210
0103010570999991980051918004+69367+024433FM-12+028599999V0201401N00151003001CN0750001N9+00001-01001999999ADDAA199000091AY121999GA1081+003009029GF108991081021002501001001KA1999M+00201MW1021REMSYN01170002 88210
0127010570999991980052006004+69367+024433FM-12+028599999V0201401N00101030001CN0750001N9+00001-00901999999ADDAA199000091AY121999GA1031+003009059GF108991031051002501021001IA1319IA2999-00409KA1999N-00201MW1021REMSYN01725496 70052 83610
0073010570999991980052012004+69367+024433FM-12+028599999V0201401N00151003001CN0750001N9+00101-00901999999ADDAY121999GA1051+003009089GF105991051021002501001001MW1021REMSYN00585810
0043010570999991980052112004+69367+024433FM-12+028599999V0201401N00211220001CN0750001N9+00301-00701999999ADDAY101999GF100991001001999999001001MW1021
0081010570999991980052118004+69367+024433FM-12+028599999V0201401N00261220001CN0750001N9+00401-00601999999ADDAA199000091AY101999GF100991001001999999001001KA1999M+00501MW1021REMSYN00570005
0105010570999991980052206004+69367+024433FM-12+028599999V0201401N00151220001CN0750001N9+00201-00601999999ADDAA199000091AY101999GF100991001001999999001001IA1319IA2999-00709KA1999N-00401MW1021REMSYN01125795 70054
0073010570999991980052212004+69367+024433FM-12+028599999V0201401N00151220001CN0750001N9+00601-00401999999ADDAY101999GA1021+006009089GF102991021021002501001001MW1021REMSYN00582820
0109010570999991980052218004+69367+024433FM-12+028599999V0209991C00001220001CN0750001N9+00601-00501999999ADDAA199000091AY121999GA1021+006009039GF104991021021002501061001KA1999M+00601MW1021REMSYN01770006 82810 82320
0043010570999991980052312004+69367+024433FM-12+028599999V0209991C00001075001CN0750001N9+00501-00101999999ADDAY121999GF106991021021002501001031MW1021
0125010570999991980052318004+69367+024433FM-12+028599999V0209991C00001075001CN0750001N9+00501-00301999999ADDAA199000091AY121999GA1031+003009059GA2021+006009039GF105991031051002501001031KA1999M+00501MW1021REMSYN01770005 83610 82320
0152010570999991980052406004+69367+024433FM-12+028599999V0209991C00001220001CN0750001N9+00201-00501999999ADDAA199000091AY101999GA1011+006009099GF102991011999002501031091IA1319IA2999-00409KA1999N-00201MW1021REMSYN02325493 70052 81310 81920EQDQ01+000002SCOLCG
0043010570999991980052412004+69367+024433FM-12+028599999V0201801N00211220001CN0750001N9+00601-00701999999ADDAY101999GF102991021001002501001041MW1021
0105010570999991980052506004+69367+024433FM-12+028599999V0201401N00211030001CN0750001N9+00701-00201999999ADDAA199000091AY111999GF105991031051002501031001IA1319IA2999-00109KA1999N-00101MW1021REMSYN01125193 70051
0043010570999991980052512004+69367+024433FM-12+028599999V0201401N00261220001CN0750001N9+00901-00301999999ADDAY101999GF103991031021002501001001MW1021
0109010570999991980052518004+69367+024433FM-12+028599999V0201801N00211220001CN0750001N9+00801-00401999999ADDAA199000091AY121999GA1021+003009059GF104991021081002501031001KA1999M+00901MW1021REMSYN01770009 82810 82610
0105010570999991980052606004+69367+024433FM-12+028599999V0209991C00001220001CN0750001N9+00901+00101999999ADDAA199000091AY101999GF100991001001999999001001IA1319IA2999-00309KA1999N+00001MW1021REMSYN01125393 70000
0108010570999991980052612004+69367+024433FM-12+028599999V0201801N99999220001CN0750001N9+01101+00201999999ADDAY101999GA1021+003009089GF102991021011002501001001MW1021REMSYN00582810EQDQ01+004843WOSPD Q020004843WOSPD 
0081010570999991980052618004+69367+024433FM-12+028599999V0201601N00151220001CN0750001N9+01201+00001999999ADDAA199000091AY101999GF101991011021004501001001KA1999M+01201MW1021REMSYN00570012
0114010570999991980052706004+69367+024433FM-12+028599999V0200901N00151220001CN0750001N9+01001+00101999999ADDAA199007091AY101999GA1021+003009039GF102991021001002501031001IA1319IA2999-00309MW1021REMSYN01725393 70740 82310
0062010570999991980052712004+69367+024433FM-12+028599999V0200901N002119999999N0750001N9+01201+00101999999ADDAY121999GF105991999041002501001001MW1021EQDQ01+000032SCOTLC
0122010570999991980052718004+69367+024433FM-12+028599999V0201501N001519999999N0750001N9+01001+00301999999ADDAA199000091AY121999GA1031+003009089GF108991051999002501011001KA1999M+01401MW1021REMSYN01170014 83810EQDQ01+000002SCOLCG
0127010570999991980052806004+69367+024433FM-12+028599999V0209991C00001000151CN0750001N9+00501+00301999999ADDAA199008091AY161999GA1081+000159049GF108991081001002501021001IA1319IA2999+00209KA1999N+00001MW1021REMSYN01720293 70800 88400
0079010570999991980052812004+69367+024433FM-12+028599999V0201801N00151075001CN0750001N9+00901+00201999999ADDAY161999GA1021+006009099GF106991021021002501001091MW1021REMSYN01182810 82920
0122010570999991980052906004+69367+024433FM-12+028599999V0209991C00001002101CN0004001N9+00301+00201999999ADDAA199000191AJ100009199999999AY141999GF108991081061002501001001IA1089IA2999-00409KA1999N-00201MW1441REMSYN01125410 79152
0073010570999991980052912004+69367+024433FM-12+028599999V0209991C00001220001CN0750001N9+01101+00001999999ADDAY141999GA1041+003009089GF104991041021002501001001MW1021REMSYN00584810
0128010570999991980052918004+69367+024433FM-12+028599999V0200901N00211075001CN0750001N9+00901+00101999999ADDAA199000091AY121999GA1041+006009099GF108991041051002501001091KA1999M+99999MW1021REMSYN01770007 84610 84920EQDQ01 +00702ATMX  
0144010570999991980053006004+69367+024433FM-12+028599999V0200901N00151003001CN0029001N9+00201+00101999999ADDAA199001091AJ100009199999999AY161999GA1081+003009049GF108991081001002501021001IA1109IA2999+00209KA1999N+00201MW1601REMSYN01720220 70102 88410
0073010570999991980053012004+69367+024433FM-12+028599999V0200901N00211003001CN0049001N9+00501+00301999999ADDAY121999GA1081+003009049GF108991081001002501021999MW1121REMSYN00588410
0103010570999991980053018004+69367+024433FM-12+028599999V0209991C00001003001CN0040001N9+00601+00301999999ADDAA199000091AY121999GA1081+003009049GF108991081001002501021001KA1999M+00601MW1021REMSYN01170006 88410
0144010570999991980053106004+69367+024433FM-12+028599999V0203601N00101003001CN0049001N9+00501+00301999999ADDAA199000491AJ100009199999999AY161999GA1081+003009049GF108991081001002501021001IA1089IA2999+00409KA1999N+00401MW1421REMSYN01720410 79404 88410
0073010570999991980053112004+69367+024433FM-12+028599999V0200901N00151003001CN0029001N9+00801+00501999999ADDAY161999GA1081+003009049GF108991081001002501031999MW1411REMSYN00588410
0081010570999991980053118004+69367+024433FM-12+028599999V0201401N00101220001CN0750001N9+01201+00901999999ADDAA199999929AY101999GF100991001001999999001001KA1999M+01201MW1021REMSYN00579712
0144010570999991980060106004+69367+024433FM-12+028599999V0209991C00001003001CN0049001N9+00501+00401999999ADDAA199004091AJ100009199999999AY161999GA1081+003009079GF108991081061002501999999IA1109IA2999-00309KA1999N+00401MW1421REMSYN01725320 70404 88710
0073010570999991980060112004+69367+024433FM-12+028599999V0209991C00001220001CN0049001N9+01701+00601999999ADDAY101999GA1021+003009009GF102991021001002501001041MW1021REMSYN00582010
0122010570999991980060118004+69367+024433FM-12+028599999V0209991C00001220001CN0750001N9+01801+00601999999ADDAA199000091AY101999GA1021+006009099GF102991021999004501001091KA1999M+01801MW1021REMSYN01170018 82920EQDQ01+000002SCOLCG
0169010570999991980060206004+69367+024433FM-12+028599999V0209991C00001220001CN0750001N9+01501+00601999999ADDAA199000091AJ100009199999999AY121999GA1021+006009099GF104991021999002501031091IA1109IA2999-00509KA1999N+01501MW1021REMSYN02325520 70015 82310 82920EQDQ01+000002SCOLCG
0095010570999991980060212004+69367+024433FM-12+028599999V0201801N00151220001CN0750001N9+02101+00801999999ADDAY121999GA1031+003009089GA2021+006009009GF105991031021002501001061MW1021REMSYN01183810 82020
0103010570999991980060218004+69367+024433FM-12+028599999V0209991C00001003001CN0750001N9+01801+00801999999ADDAA199000091AY121999GA1081+003009059GF108991081051002501999999KA1999M+02101MW1021REMSYN01170021 88610
0169010570999991980060306004+69367+024433FM-12+028599999V0209991C000019999999N0750001N9+01201+01001999999ADDAA199002091AJ100009199999999AY161999GA1031+006009089GF106991031999002501081091IA1109IA2999+00209KA1999N+00601MW1021REMSYN02320220 70206 83310 83820EQDQ01+000002SCOLCG
0095010570999991980060312004+69367+024433FM-12+028599999V0201801N00211006001CN0750001N9+02401+01001999999ADDAY101999GA1021+003009089GA2031+006009089GF105991021021002501001081MW1021REMSYN01182810 83820
0114010570999991980060406004+69367+024433FM-12+028599999V0209991C00001004201CN0750001N9+01201+01001999999ADDAA199002091AY161999GA1031+006009049GF108991081031004501001001IA1109IA2999+00809MW1021REMSYN01720820 70280 83420
0043010570999991980060412004+69367+024433FM-12+028599999V0202701N00151030001CN0750001N9+02101+01001999999ADDAY101999GF105991031021002501041001MW1021
0125010570999991980060418004+69367+024433FM-12+028599999V0209991C00001006001CN0750001N9+01501+00801999999ADDAA199000091AY101999GA1041+003009099GA2021+006009039GF106991041031002501031001KA1999M+02301MW1021REMSYN01770023 84910 82320
0166010570999991980060506004+69367+024433FM-12+028599999V0202701N00261220001CN0750001N9+01201+00201999999ADDAA199000091AJ100009199999999AY121999GA1011+003009089GA2021+006009039GF103991011021002501031001IA1089IA2999-00209KA1999N+00601MW1021REMSYN02325210 70006 81810 82320
0166010570999991980060606004+69367+024433FM-12+028599999V0203601N00261006001CN0750001N9+00701+00101999999ADDAA199000091AJ100009199999999AY121999GA1021+003009099GA2041+006009009GF106991021031002501001021IA1089IA2999-00309KA1999N-00401MW1021REMSYN02325310 70054 82910 84020
0144010570999991980060618004+69367+024433FM-12+028599999V0209991C000019999999N0750001N9+01401-00101999999ADDAA199000091AY101999GA1031+003009039GA2041+006009099GF107991031999002501081091KA1999M+01401MW1021REMSYN01770014 83310 84920EQDQ01+000002SCOLCG
0144010570999991980060706004+69367+024433FM-12+028599999V0209991C000019999999N0750001N9+00801+00601999999ADDAA199000691AJ100009199999999AY161999GA1031+003009039GF108991031001002501031021IA1109IA2999+00009KA1999N+00801MW1021REMSYN01720020 79608 83310
0043010570999991980060712004+69367+024433FM-12+028599999V0209991C00001075001CN0750001N9+01501+00501999999ADDAY121999GF107991021031002501001081MW1021
0125010570999991980060718004+69367+024433FM-12+028599999V0209991C00001075001CN0750001N9+01701+00701999999ADDAA199999929AY181999GA1021+003009019GA2041+006009099GF106991021011002501001091KA1999M+01701MW1021REMSYN01779717 82110 84920
0122010570999991980060806004+69367+024433FM-12+028599999V0209991C000019999999N0750001N9+00801+00501999999ADDAA199000091AJ100009199999999AY121999GF108991081001004501001021IA1089IA2999-00209KA1999N+00701MW1021REMSYN01125210 70007
0095010570999991980060812004+69367+024433FM-12+028599999V0209991C00001006001CN0750001N9+01301+00101999999ADDAY121999GA1031+003009019GA2021+006009089GF105991031011002501031001MW1021REMSYN01183110 82820
0095010570999991980060818004+69367+024433FM-12+028599999V0200901N00261075001CN0750001N9+01101+00301999999ADDAA199000091AY121999GF108991031031002501001031KA1999M+01301MW1021WG199990099999REMSYN00570013
0144010570999991980060906004+69367+024433FM-12+028599999V0200901N00151009601CN0029001N9+00501+00301999999ADDAA199002091AJ100009199999999AY161999GA1081+009609009GF108991081001002501021001IA1109IA2999-00309KA1999N+00501MW1301REMSYN01725320 70205 88032
0057010570999991980060912004+69367+024433FM-12+028599999V0209991C00001002101CN0750001N9+00701+00201999999ADDAY161999GF108991081031002501001001MW1021WG199990299999
0095010570999991980060918004+69367+024433FM-12+028599999V0209991C00001002101CN0750001N9+00901+00101999999ADDAA199001091AY121999GF108991081031002501999999KA1999M+01101MW1021WG199030099999REMSYN00570111
0122010570999991980061006004+69367+024433FM-12+028599999V0202701N00211002101CN0750001N9+00801+00201999999ADDAA199000291AJ100009199999999AY161999GF108991081031002501999999IA1109IA2999-00309KA1999N+00501MW1021REMSYN01125320 79205
0043010570999991980061012004+69367+024433FM-12+028599999V0200901N00151075001CN0750001N9+01101+00401999999ADDAY161999GF106991031031002501001031MW1021
0109010570999991980061018004+69367+024433FM-12+028599999V0209991C00001075001CN0750001N9+00601-00101999999ADDAA199001091AY161999GA1041+006009009GF108991041031002501001021KA1999M+01101MW1021REMSYN01770111 84010 84020
0122010570999991980061106004+69367+024433FM-12+028599999V0202201N00211030001CN0750001N9+00601+00101999999ADDAA199000591AJ100009199999999AY161999GF106991031051002501031021IA1089IA2999-00409KA1999N+00401MW1021REMSYN01125410 79504
0144010570999991980061118004+69367+024433FM-12+028599999V0203201N00361075001CN0750001N9+00301-00601999999ADDAA199999929AY121999GA1021+003009089GA2031+006009009GF105991021021002501001031KA1999M+99999MW1021REMSYN01779702 82810 83020EQDQ01 +00202ATMX  
0122010570999991980061206004+69367+024433FM-12+028599999V0203201N00311002101CN0750001N9+00201-00101999999ADDAA199001091AJ100009199999999AY181999GF108991081031002501001001IA1109IA2999-00109KA1999N+00001MW1021REMSYN01125120 70100
0098010570999991980061212004+69367+024433FM-12+028599999V0203201N00311002101CN0750001N9+00301-00501999999ADDAY181999GA1031+006009039GF108991999031002501031001MW1021REMSYN01183910 83320EQDQ01+000082SCOTLC
0122010570999991980061218004+69367+024433FM-12+028599999V0203201N00261003001CN0750001N9+00301-00501999999ADDAA199001091AY181999GA1081+003009059GF108991081999002501021001KA1999M+00701MW1021REMSYN01170107 88610EQDQ01+000002SCOLCG
0144010570999991980061306004+69367+024433FM-12+028599999V0209991C00001003001CN0750001N9+00301-00201999999ADDAA199000291AJ100009199999999AY181999GA1081+003009099GF108991081031002501001001IA1089IA2999-00209KA1999N+00201MW1021REMSYN01725210 79202 88910
0073010570999991980061312004+69367+024433FM-12+028599999V0209991C00001003001CN0750001N9+00701-00401999999ADDAY121999GA1071+003009029GF107991071021002501001001MW1021REMSYN00587210
0081010570999991980061318004+69367+024433FM-12+028599999V0209991C00001030001CN0750001N9+00901-00401999999ADDAA199000091AY121999GF107991041031002501041001KA1999M+00901MW1021REMSYN00570009
0166010570999991980061406004+69367+024433FM-12+028599999V0202201N00211003001CN0750001N9+00701+00001999999ADDAA199000091AJ100009199999999AY121999GA1081+003009039GA2051+006009029GF108991031031002501001001IA1089IA2999-00309KA1999N+00401MW1021REMSYN02325310 70004 88310 85220
0073010570999991980061412004+69367+024433FM-12+028599999V0202201N00151220001CN0750001N9+01301+00001999999ADDAY101999GA1041+003009089GF104991041011002501001001MW1021REMSYN00584810
0125010570999991980061418004+69367+024433FM-12+028599999V0202201N00211006001CN0750001N9+01401+00101999999ADDAA199000091AY101999GA1031+003009099GA2051+006009039GF105991031031002501031001KA1999M+01501MW1021REMSYN01770015 83910 85320
0150010570999991980061506004+69367+024433FM-12+028599999V0202201N00151220001CN0750001N9+00901+00201999999ADDAA199000091AJ100009199999999AY101999GA1021+006009009GF104991021051002501001011IA1009IA2999-00109KA1999N+00201MW1021REMSYN02325100 70002 82610 82020
0073010570999991980061512004+69367+024433FM-12+028599999V0202701N00261220001CN0750001N9+02001-00801999999ADDAY101999GA1011+006009029GF101991011001004501001081MW1021REMSYN00581220
0163010570999991980061606004+69367+024433FM-12+028599999V0209991C00001003001CN0750001N9+01101+00301999999ADDAA199011091AJ100009199999999AY121999GA1081+003009009GF108991081001002501001041IA1009IA2999-00109KA1999N+99999MW1021REMSYN01725100 71112 88010EQDQ01 +01202ATMN  
0043010570999991980061612004+69367+024433FM-12+028599999V0203601N00261220001CN0750001N9+01801+00101999999ADDAY101999GF103991031001004501001081MW1021
0103010570999991980061618004+69367+024433FM-12+028599999V0209991C00001220001CN0750001N9+01601-00101999999ADDAA199000091AY121999GA1041+006009029GF104991041001004501001081KA1999M+01901MW1021REMSYN01170019 84220
0103010570999991980061718004+69367+024433FM-12+028599999V0201401N00101220001CN0750001N9+01801+00401999999ADDAA199000091AY101999GA1031+003009039GF103991031001002501031001KA1999M+02201MW1021REMSYN01170022 83310
0144010570999991980061806004+69367+024433FM-12+028599999V0209991C00001220001CN0750001N9+01301+00401999999ADDAA199000091AJ100009199999999AY101999GA1031+003009049GF103991031001002501041001IA1009IA2999-00109KA1999N+00901MW1021REMSYN01725100 70009 83410
0133010570999991980061906004+69367+024433FM-12+028599999V0201401N00151030001CN0750001N9+01401+01101999999ADDAA199000291AY181999GA1041+006009039GF108991041031002501031041IA1009IA2999+01109KA1999N+01201MW1021REMSYN02321100 79212 84910 84320
0079010570999991980061912004+69367+024433FM-12+028599999V0202701N00211220001CN0750001N9+02301+00701999999ADDAY101999GA1021+006009059GF104991021021002501001031MW1021REMSYN01182810 82620
0103010570999991980061918004+69367+024433FM-12+028599999V0202201N00211075001CN0750001N9+02101+00701999999ADDAA199000091AY101999GA1031+003009099GF105991031031002501001051KA1999M+02501MW1021REMSYN01170025 83910
0081010570999991980062006004+69367+024433FM-12+028599999V0201801N00261075001CN0750001N9+01701+00901999999ADDAA199000091AY101999GF105991021031002501001021KA1999N+01201MW1021REMSYN00570012
0079010570999991980062012004+69367+024433FM-12+028599999V0202201N00311220001CN0750001N9+02101+01001999999ADDAY121999GA1021+006009009GF104991021021002501001031MW1021REMSYN01182810 82020
0101010570999991980062018004+69367+024433FM-12+028599999V0202201N00311075001CN0750001N9+02101+01001999999ADDAA199000091GA1041+006009009GF108991041031002501001021KA1999M+02201MW1001REMSYN01770022 84910 84020
0105010570999991980062106004+69367+024433FM-12+028599999V0202701N00261220001CN0750001N9+01701+00801999999ADDAA199000091AY101999GF104991021041002501001011IA1009IA2999+00209KA1999N+01201MW1021REMSYN01120200 70012
0079010570999991980062112004+69367+024433FM-12+028599999V0202701N00261075001CN0750001N9+02101+01101999999ADDAY101999GA1031+006009059GF106991031021002501001081MW1021REMSYN01183810 83620
0081010570999991980062118004+69367+024433FM-12+028599999V0209991C00001075001CN0750001N9+02001+00601999999ADDAA199000091AY101999GF106991031021002501001081KA1999M+02201MW1021REMSYN00570022
0144010570999991980062206004+69367+024433FM-12+028599999V0200901N00311001501CN0750001N9+00701+00501999999ADDAA199003091AJ100009199999999AY161999GA1081+001509079GF108991081061001501999999IA1109IA2999+00009KA1999N+00701MW1021REMSYN01720020 70307 88705
0073010570999991980062212004+69367+024433FM-12+028599999V0200901N00211001501CN0049001N9+00901+00701999999ADDAY161999GA1081+001509079GF108991081061001501001001MW1101REMSYN00588705
0081010570999991980062218004+69367+024433FM-12+028599999V0200901N00151001201CN0750001N9+01001+00801999999ADDAA199002091AY161999GF108991081061001501999999KA1999M+02101MW1021REMSYN00570221
0127010570999991980062306004+69367+024433FM-12+028599999V0200901N00151003001CN0750001N9+00801+00601999999ADDAA199004091AY161999GA1081+003009049GF108991081001002501021001IA1009IA2999+00709KA1999N+00701MW1021REMSYN01720700 70407 88410
0043010570999991980062312004+69367+024433FM-12+028599999V0201401N00101030001CN0750001N9+01501+00801999999ADDAY101999GF105991031031002501021001MW1021
0144010570999991980062406004+69367+024433FM-12+028599999V0201401N00151003001CN0029001N9+01001+00801999999ADDAA199007091AJ100009199999999AY161999GA1081+003009079GF108991081061002501001001IA1009IA2999+00209KA1999N+00801MW1441REMSYN01720200 70708 88710
0095010570999991980062412004+69367+024433FM-12+028599999V0201401N00151220001CN0750001N9+01401+00901999999ADDAY101999GA1031+003009099GA2011+006009039GF104991041031002501031001MW1021REMSYN01183910 81320
0125010570999991980062418004+69367+024433FM-12+028599999V0200901N00211220001CN0750001N9+01501+01001999999ADDAA199000491AY161999GA1031+003009099GA2011+006009099GF104991031031002501001081KA1999M+01801MW1021REMSYN01779418 83910 81920
0144010570999991980062506004+69367+024433FM-12+028599999V0209991C00001003001CN0750001N9+01301+01101999999ADDAA199000591AJ100009199999999AY161999GA1081+003009079GF108991081061002501001001IA1089IA2999+00009KA1999N+01001MW1021REMSYN01720010 79510 88710
0079010570999991980062512004+69367+024433FM-12+028599999V0209991C00001030001CN0750001N9+01801+00801999999ADDAY161999GA1031+006009099GF106991031021002501031001MW1021REMSYN01183810 83920
0125010570999991980062518004+69367+024433FM-12+028599999V0201401N00151006001CN0750001N9+01801+00701999999ADDAA199000191AY121999GA1041+003009099GA2021+006009039GF106991041031002501031001KA1999M+02001MW1021REMSYN01779120 84910 82320
